:020000040800F2
:10000000906700203D05000839450008BB3900080D
:100010003545000889050008195300080000000054
:100020000000000000000000000000006D02000859
:10003000E309000800000000C1020008BF460008F4
:100040005705000857050008570500085705000820
:100050005705000857050008570500085705000810
:100060005705000857050008570500085705000800
:100070008908000857050008990800085705000876
:1000800057050008A9080008570500089D05000845
:100090008D0500085705000857050008570500089A
:1000A00057050008570500085705000857050008C0
:1000B00057050008570500085705000857050008B0
:1000C00057050008570500085705000857050008A0
:1000D00057050008D551000857050008E9510008E8
:1000E0005705000857050008570500085705000880
:1000F0005705000857050008570500085705000870
:10010000570500085705000857050008570500085F
:10011000570500085705000835480008570500082E
:1001200057050008B9080008C90800085705000865
:10013000570500085705000857050008BD050008C9
:10014000AD050008570500085705000857050008C9
:10015000570500085705000857050008FD5100081D
:1001600057050008570500085705000857050008FF
:100170005705000857050008570500080000000053
:100180005705000857050008054B0008194B0008E3
:1001900057050008570500085705000857050008CF
:1001A00000000000000000005705000800F002F801
:1001B00000F04CF80AA090E8000C82448344AAF1B5
:1001C0000107DA4501D100F041F8AFF2090EBAE8B3
:1001D0000F0013F0010F18BFFB1A43F0010318477B
:1001E000DCBA0000FCBA00000A4410F8014B14F01D
:1001F0000F0508BF10F8015B240908BF10F8014B78
:100200006D1E05D010F8013B6D1E01F8013BF9D1C0
:10021000641E03D0641E01F8015BFBD19142E4D35C
:10022000704700000023002400250026103A28BF54
:1002300078C1FBD8520728BF30C148BF0B60704758
:100240001FB50AF0BAFF1FBD10B510BD00F047F989
:100250001146FFF7F5FF07F08BFD00F065F903B4D9
:10026000FFF7F2FF03BC00F089F900002B4B19687F
:100270000868B0E8F04F80F30988BFF36F8F4FF044
:10028000000080F3118870470000000006480068F5
:10029000006880F3088862B661B6BFF34F8FBFF382
:1002A0006F8F00DF00BF00BF08ED00E0DFF80C003B
:1002B000016841F470010160704700BF88ED00E003
:1002C000EFF30980BFF36F8F144B1A681EF0100F05
:1002D00008BF20ED108A20E9F04F106008B44FF0FD
:1002E000500080F31188BFF34F8FBFF36F8F09F079
:1002F000CFFD4FF0000080F3118808BC1968086832
:10030000B0E8F04F1EF0100F08BFB0EC108A80F379
:100310000988BFF36F8F704700BF00BF1001002036
:10032000EFF305807047032A40F2308010F0030C91
:1003300000F0158011F8013BBCF1020F624498BF38
:1003400011F801CB00F8013B38BF11F8013BA2F1D5
:10035000040298BF00F801CB38BF00F8013B11F050
:10036000030300F02580083AC0F0088051F8043BF0
:10037000083A51F804CBA0E80810F5E7121D5CBF5D
:1003800051F8043B40F8043BAFF30080D20724BF90
:1003900011F8013B11F801CB48BF11F8012B24BF24
:1003A00000F8013B00F801CB48BF00F8012B704773
:1003B00010B5203AC0F00B80B1E81850203AA0E800
:1003C0001850B1E81850A0E81850BFF4F5AF5FEA34
:1003D000027C24BFB1E81850A0E8185044BF18C9E7
:1003E00018C0BDE810405FEA827C24BF51F8043B8E
:1003F00040F8043B08BF7047D20728BF31F8023BE2
:1004000048BF11F8012B28BF20F8023B48BF00F875
:10041000012B704702F0FF0343EA032242EA024243
:1004200000F002B84FF000020429C0F0128010F072
:10043000030C00F02680CCF1040CBCF1020F18BFB5
:1004400000F8012BA8BF20F8022BA1EB0C0100F053
:1004500018B85FEAC17C24BF00F8012B00F8012B1B
:1004600048BF00F8012B704710B500F033F8006862
:1004700010BD10B5044600F02DF8046010BD4FF01B
:10048000000200B5134694469646203922BFA0E8E4
:100490000C50A0E80C50B1F12001BFF4F7AF0907F0
:1004A00028BFA0E80C5048BF0CC05DF804EB8900E1
:1004B00028BF40F8042B08BF704748BF20F8022B24
:1004C00011F0804F18BF00F8012B704700487047AB
:1004D0003052002000487047305200207047754667
:1004E000FFF7F4FFAE4605006946534620F00700CB
:1004F000854618B020B500F02FF8BDE820404FF039
:1005000000064FF000074FF000084FF0000B21F0FD
:100510000701AC46ACE8C009ACE8C009ACE8C009CA
:10052000ACE8C0098D46704710B50446AFF30080B3
:100530002046BDE81040FFF792BE00000948804702
:1005400009480047FEE7FEE7FEE7FEE7FEE7FEE7B5
:10055000FEE7FEE7FEE7FEE704480549054A064BCD
:1005600070470000D1470008AD01000890520020FC
:1005700090670020905700209057002001491820D4
:10058000ABBEFEE72600020000BFFEE710B5024842
:1005900000F0DAFA10BD00006C0E002010B5024821
:1005A00000F0D2FA10BD00006C0E002010B5024819
:1005B00000F0CAFA10BD0000B00E002010B50248CD
:1005C00000F0C2FA10BD0000B00E00202DE9F0418D
:1005D00004460D46002700260DB9666B00E0A66BA9
:1005E000206800F5D87000EB0510006800F00400EA
:1005F000B060B06858B9206800F5D87000EB0510FD
:10060000006840F2FF7101EA505030600AE0206853
:1006100000F5D87000EB051000686FF0604101EA4A
:10062000D0007060206800F5D87000EB05100068FD
:1006300000F00200F060206800F5D87000EB0510B3
:10064000406800F00F0030613562206800F5D87016
:1006500000EB05104068C0F30720F061206800F54A
:10066000D87000EB051080683075206800F5D870F0
:1006700000EB05108068010A7175206800F5D870DC
:1006800000EB05108068010CB175206800F5D8708A
:1006900000EB05108068000EF075206800F5D8703A
:1006A00000EB0510C0683076206800F5D87000EBCC
:1006B0000510C068010A7176206800F5D87000EB5B
:1006C0000510C068010CB176206800F5D87000EB09
:1006D0000510C068000EF0764DB920202168C86072
:1006E0002068406920F00A002168486108E0202065
:1006F000216808612068406920F050002168486145
:1007000094F83C70222F01D0322F05D12068406927
:1007100020F40F4021684861CDB994F83C0042288C
:1007200004D0622806D072280CD107E0122084F889
:100730003C000BE0322084F83C0007E0522084F8B3
:100740003C0003E0012084F83C0000BF19E094F86D
:100750003C00522804D0622806D072280CD107E051
:10076000122084F83C000BE0222084F83C0007E0D3
:10077000422084F83C0003E0012084F83C0000BFE4
:1007800000BF204600F008FD0020BDE8F08110B554
:1007900004462068406920F001002168486194F80F
:1007A0003C00122805D12068406920F40F402168E0
:1007B000486194F83C00422804D0522806D07228A0
:1007C0000CD107E0222084F83C000BE0322084F8B2
:1007D0003C0007E0622084F83C0003E0012084F83C
:1007E0003C0000BF00BF204600F00AFD002010BD05
:1007F0002DE9F0470C4608AD95E8E010DDF83080B3
:10080000002106E014F80190C1F1020A00F80A90F4
:10081000491C032904DA14F80190B9F1000FF1D151
:1008200090F8039029F0380909F1100980F8039035
:1008300090F8039062F3020980F80390B0F80390F7
:1008400063F38919A0F8039090F8049065F3850983
:1008500080F80490B0F8079066F30909A0F80790B3
:10086000B0F8089067F38C09A0F80890B0F80990E8
:100870006CF34F19A0F80990B0F80B9068F30909D0
:10088000A0F80B90BDE8F08710B5024800F0CEFC50
:1008900010BD00005411002010B5024800F0C6FC45
:1008A00010BD00003410002010B5024800F0BEFC5E
:1008B00010BD00009410002010B5024800F0B6FCF6
:1008C00010BD0000B411002010B5024800F0AEFCCD
:1008D00010BD0000F41000200146087810381823DD
:1008E000B0FBF3F20848805CC865032A05D90868A4
:1008F0006FF30900001D886503E008686FF30900C5
:100900008865886D70470000E8B90008014600203E
:100910008A6A8B69CBB932B1012A0DD0022A03D081
:10092000032A10D10EE000BFCB6A03F08073B3F14D
:10093000807F00D1012007E0CB6AB3F1C07F00D1F6
:10094000012001E000E000BF34E08B69B3F5005FF7
:100950001AD132B1012A07D0022A03D0032A11D1B9
:100960000AE000BF01200EE0CB6A03F08073B3F110
:10097000807F00D1012006E0CB6AB3F1C07F00D1B7
:10098000012000E000BF15E032B1012A05D0022AA3
:1009900004D0032A0CD103E000BF00BF012008E00F
:1009A000CB6A03F08073B3F1807F00D1012000E0B7
:1009B00000BF00BF704730B50468246824F4802469
:1009C00005682C60046863608468402C04D1046866
:1009D000A2600468E16003E00468A1600468E2606A
:1009E00030BD704730B5034613B94FF6FF7030BDC8
:1009F00009E013F8014B82EA0400C0B2054D35F856
:100A0000100080EA2222081EA1F10101F1D1104656
:100A1000EDE70000E8B7000830B5034605E013F83D
:100A2000010B80EA02040448025D081EA1F10101E5
:100A3000F5D1104630BD0000E7B6000870B5044699
:100A40000A460023157D012000FA05F33C4901F513
:100A50000071086840F001000860086820F47C50CC
:100A600008600868556A40EA05200860C86998432C
:100A7000C861A1F50071D069C8B9D1F80C029843DA
:100A8000C1F80C02908880B2958940EA054501F5CD
:100A90001070566940F83650108880B2158940EAC7
:100AA000054501F51070566900EBC6004560D06938
:100AB000012819D1D1F80C021843C1F80C02908812
:100AC00080B2158840EA054501F51070566940F876
:100AD0003650908980B2158940EA054501F51070BD
:100AE000566900EBC6004560906928B9D1F8040248
:100AF0009843C1F8040204E0D1F804021843C1F895
:100B00000402106920B9D1F814029843C1F8140204
:100B10001069012804D1D1F814021843C1F8140255
:100B2000106A012804D1D1F81C021843C1F81C0234
:100B3000D1F8000220F00100C1F80002002070BDD1
:100B400000640040704700002DE9F0410446002594
:100B500000260027A8462068C068C0F3001520685A
:100B60004069C0F3C0062DB126B148F400781020CA
:100B70002168C86020680069C0F3001520684069DA
:100B8000C0F380162DB126B148F48068102021688A
:100B900008612068406900F0010000283BD020680F
:100BA00080687A490840884201D1012000E0002095
:100BB00005462068806876490840884201D10120B6
:100BC00000E000200646206880687249084088429C
:100BD00001D1012000E0002007460DB906B9D7B1C8
:100BE00020688068C0F3400520688068C0F3402614
:100BF00020688068C0F340470DB906B91FB1204690
:100C0000FFF7C5FD01E048F400682068806862498C
:100C10000843216888602068C06800F003052068E8
:100C20004069C0F3400625B11EB100212046FFF700
:100C3000CDFC2068006900F0030520684069C0F31E
:100C4000001625B11EB101212046FFF7BFFC206C24
:100C500040EA080020642068806900F001052068EF
:100C60004069C0F3002620684069C0F3C0372DB149
:100C700026B11FB1206C40F001002064206880691B
:100C8000C0F3400520684069C0F3402620684069F1
:100C9000C0F3C0372DB126B11FB1206C40F0020067
:100CA000206420688069C0F3800520684069C0F333
:100CB000802620684069C0F3C0372DB126B11FB12E
:100CC000206C40F0040020642068806900F070000F
:100CD00008B9012000E00020054620684069C0F303
:100CE000C02620684069C0F3C03795BB8EB387B378
:100CF0002068806900F07005402D1BD006DC102DA7
:100D000009D0202D0CD0302D24D10EE0502D16D03E
:100D1000602D1FD118E0206C40F0080020641AE01C
:100D2000206C40F01000206415E0206C40F02000A2
:100D3000206410E0206C40F0400020640BE0206C48
:100D400040F08000206406E0206C40F48070206455
:100D500001E007E000BF00BF2068806920F070005C
:100D600021688861206C78B10420216848600120E6
:100D700084F83C002068406948F65B71884321682C
:100D800048612046FFF7DEFEBDE8F0810300000465
:100D900000030008000003101905010070B50446A7
:100DA000002600250CB9012070BD94F83C0028B93C
:100DB000002084F83D00204600F0CEF8022084F8A0
:100DC0003C002068006820F002002168086020686C
:100DD000006840F001002168086000F017FD05463A
:100DE0000EE000F013FD401B0A2809D9032084F807
:100DF0003C0000BF002084F83D0000BF0320D3E783
:100E00002068406800F001000028EAD020684068AF
:100E100000F00100002875D0A069012806D12068E3
:100E2000006840F080002168086005E020680068E4
:100E300020F0800021680860E069012806D1206860
:100E4000006840F040002168086005E02068006804
:100E500020F0400021680860206A012806D120683F
:100E6000006840F020002168086005E02068006804
:100E700020F0200021680860606A012806D12068FF
:100E8000006840F010002168086005E020680068F4
:100E900020F0100021680860A06A012806D12068AF
:100EA000006840F008002168086005E020680068DC
:100EB00020F0080021680860E06A012806D1206857
:100EC000006840F004002168086005E020680068C0
:100ED00020F0040021680860D4E902010843216978
:100EE0000843616908436168491E08432168C86175
:100EF0002068006820F001002168086000F086FC8E
:100F000005460FE01AE000F081FC401B0A2809D9D1
:100F1000032084F83C0000BF002084F83D0000BF9F
:100F2000032041E72068406800F001000028EAD172
:100F30002068406800F0010000B90126012E06D1AA
:100F400000202064012084F83C0000202CE70420CD
:100F500084F83C00012027E710B586B004464549D7
:100F60002068884237D144480068401C42490860E4
:100F70000846006801280FD100BF002000903F48BC
:100F8000006840F000703D4908600846006800F0C5
:100F90000070009000BF00BF03200190022002906B
:100FA00000200390032004900920059001A93448F3
:100FB00000F018FB00220521132000F0A7FC1320ED
:100FC00000F097FC00220521142000F09FFC142063
:100FD00000F08FFC4BE02B492068884247D100BFCE
:100FE000002000902548006840F080602349086098
:100FF0000846006800F08060009000BF00BF1E48F7
:101000000068401C1C4908600846006801280FD190
:1010100000BF002000901948006840F00070174998
:1010200008600846006800F00070009000BF00BF34
:101030004FF44050019002200290002003900320C2
:1010400004900920059001A90F4800F0CBFA002276
:1010500006213F2000F05AFC3F2000F04AFC00220D
:101060000621402000F052FC402000F042FC06B077
:1010700010BD0000006400404800002040380240DD
:10108000000C02400068004000040240024689B99A
:1010900092F83C0022280BD092F83C00422807D05E
:1010A00092F83C00622803D092F83C00722801D1EB
:1010B00002207047012911D192F83C0032280BD050
:1010C00092F83C00522807D092F83C00622803D0E6
:1010D00092F83C00722801D10220EAE700BF92F8A2
:1010E0003D00012801D10220E3E7012082F83D0004
:1010F00000BFC9B992F83C00122804D0322806D0AB
:1011000052280CD107E0422082F83C000BE062201C
:1011100082F83C0007E0722082F83C0003E02220C5
:1011200082F83C0000BF19E092F83C00122804D07D
:10113000222806D042280CD107E0522082F83C0039
:101140000BE0622082F83C0007E0722082F83C004D
:1011500003E0322082F83C0000BF00BF0020106492
:101160001068406948F6017318431368586100BF5E
:10117000002082F83D0000BF31B91068406940F09E
:101180000A001368586105E01068406940F050009B
:101190001368586100208CE710B504461548844256
:1011A0000AD115480068A0B1636B03F114011868F7
:1011B000114B1A6890470CE01048844209D10E4840
:1011C000406830B1636B03F1140118680A4B5A6828
:1011D000904708480068406940F0020005490968E6
:1011E000486106480068406940F002000349096808
:1011F000486110BD6C0E002068000020B00E002079
:101200007047014691F83500022803D080204865D8
:1012100001207047052081F835000868006820F03B
:1012200001000A6810600020F3E70000F8B50446EA
:10123000002000908D4800684FF41651B0FBF1F784
:10124000A56D2E6894F85C1008208840304098B155
:101250002068006800F0040070B12068006820F089
:1012600004002168086094F85C1008208840A86099
:10127000606D40F00100606594F85C107C48884027
:10128000304068B12068406900F0800040B194F8B7
:101290005C1077488840A860606D40F0020060658F
:1012A00094F85C107248C01C8840304070B12068CF
:1012B000006800F0020048B194F85C106C48C01C53
:1012C0008840A860606D40F00400606594F85C1090
:1012D00010208840304078B32068006800F0080093
:1012E00050B394F85C1010208840A8602068006813
:1012F00000F4802080B12068006800F4002028B944
:10130000206CC8B12046216C884715E0A06C98B1CC
:101310002046A16C88470FE02068006800F48070C8
:1013200028B92068006820F0080021680860206C57
:1013300010B12046216C884794F85C10202088402A
:101340003040002865D02068006800F010000028B8
:101350005FD094F85C1020208840A86094F8350095
:10136000052828D12068006820F016002168086050
:101370002068406920F0800021684861206C08B92D
:10138000A06C28B12068006820F00800216808607F
:1013900094F85C103F208840A86000BF002084F8CB
:1013A000340000BF012084F83500206D10B12046C4
:1013B000216D8847F8BD2068006800F4802080B166
:1013C0002068006800F4002028B9606C10B1204645
:1013D000616C88471DE0E06BD8B12046E16B88471F
:1013E00017E02068006800F4807068B92068006821
:1013F00020F010002168086000BF002084F834004D
:1014000000BF012084F83500E06B10B12046E16B8D
:101410008847606D38B3606D00F00100F0B10520C1
:1014200084F835002068006820F001002168086019
:1014300000BF0098401C0090B84200D905E0206829
:10144000006800F001000028F3D100BF00BF0020B9
:1014500084F8340000BF012084F83500E06C10B13E
:101460002046E16C884700BFA4E70000F40000209C
:10147000010080002DE9F0410446002500F0C6F986
:10148000074614B90120BDE8F081606A00B100BFD1
:1014900000BF002084F8340000BF022084F835002B
:1014A0002068006820F00100216808600AE000F070
:1014B000ADF9C01B052805D920206065032084F8FC
:1014C0003500E0E72068006800F001000028EED158
:1014D0002068056821480540D4E901010843E16816
:1014E00008432169084361690843A1690843E16928
:1014F0000843216A08430543606A042803D1D4E9FC
:101500000B0108430543206805602068456925F004
:101510000705606A0543606A04280DD1A06A054387
:10152000E06A48B12046FFF7F1F928B14020606534
:10153000012084F83500A6E7206845612046FFF7C2
:10154000CBF9064694F85C103F208840B06000203C
:101550006065012084F83500002094E73F8010F09A
:101560002DE9F04104460D4616461F464FF000088F
:1015700000BF94F83400012802D10220BDE8F081B8
:10158000012084F8340000BF94F83500012811D1FF
:10159000022084F83500002060653B46324629462B
:1015A0002046FFF708FA2068006840F00100216833
:1015B000086006E000BF002084F8340000BF4FF050
:1015C00002084046DAE731B500F020F90546009CF4
:1015D000601C00B1641C00BF00F018F9401BA04261
:1015E000FAD338BDF8B502460B460025002400208A
:1015F0000021E6E0012606FA01F51E6806EA050468
:10160000AC4273D15E68022E02D05E68122E13D1F6
:10161000CF0802F1200656F827004E07F70E0F26D6
:10162000BE40B0434F07FF0E1E69BE403043CF0897
:1016300002F1200646F8270010684F000326BE403E
:10164000B0431E7906F003064F00BE4030431060E1
:101650005E68012E08D05E68022E05D05E68112EED
:1016600002D05E68122E13D190684F000326BE4050
:10167000B0434F00DE68BE403043906050680126A2
:101680008E40B0431E79C6F300168E403043506042
:10169000D0684F000326BE40B0434F009E68BE4056
:1016A0003043D0605E6806F08056B6F1805FA8D106
:1016B00000BF00260096454E366846F48046434FEC
:1016C0003E603E46366806F48046009600BF00BF86
:1016D0003F4E8F0856F827008E07370F0F26BE4063
:1016E000B0433C4EB24202D100262EE068E03A4EB2
:1016F000B24201D1012628E0384EB24201D1022681
:1017000023E0374EB24201D103261EE0354EB242ED
:1017100001D1042619E0344EB24201D1052614E06D
:10172000324EB24201D106260FE0314EB24201D113
:1017300007260AE02F4EB24201D1082605E02E4EC0
:10174000B24201D1092600E00A268F073F0FBE40B2
:1017500030431F4E8F0846F82700284E3068A043BC
:101760005E6806F48036B6F5803F00D12043234EF4
:101770003060361D3068A0435E6806F40036B6F56A
:10178000003F00D120431D4E361D3060361D3068AD
:10179000A0435E6806F48016B6F5801F00D1204392
:1017A000164E08363060361D3068A0435E6806F479
:1017B0000016B6F5001F00D12043104E0C363060E5
:1017C000491C1029FFF416AFF8BD00004438024050
:1017D00008380140000002400004024000080240B6
:1017E000000C0240001002400014024000180240A9
:1017F000001C02400020024000240240003C014046
:101800000AB1816101E00B048361704701480068FF
:10181000704700004400002002480068401C014955
:10182000086070474400002010B50D48006840F47F
:1018300000700B4908600846006840F4806008604A
:101840000846006840F480700860032000F09CF8AF
:10185000002000F007F800F04BF8002010BD000059
:10186000003C024070B588B00446002500260022E6
:101870002146362000F04AF8362000F03AF800BF42
:10188000002001901648006840F0100014490860DC
:101890000846006800F01000019000BF00BF02A9D8
:1018A00003A800F077FB00F09DFB45000D48B5FB59
:1018B000F0F0461E0C480D49086040F2E7310B4835
:1018C000C160466000210161816001F094FA20B995
:1018D000064801F0ABFA08B070BD0120FBE700003C
:1018E0004038024040420F00001000401412002017
:1018F000704700BF00F01F02012191404209920091
:1019000002F1E022C2F8001100BF70472DE9F05F3C
:1019100080460D461646002702F010FE074639465F
:101920002A46334601F00700C0F1070ABAF1040F56
:1019300002D94FF0040A01E0C0F1070AD14600F1D4
:10194000040ABAF1070F02D24FF0000A01E0A0F139
:10195000030AD4464FF0010A0AFA09FAAAF1010A69
:101960000AEA020A0AFA0CFA4FF0010B0BFA0CFB16
:10197000ABF1010B0BEA030B4AEA0B04214640468C
:1019800002F0E4FDBDE8F09F00BF00F00702064B47
:1019900019684FF6FF031940044B0B4343EA022139
:1019A000014B196000BF70470CED00E00000FA0524
:1019B00038B5002400BF002000902348006840F0A4
:1019C0008050214908600846006800F0805000906F
:1019D00000BF00BF0120010491FAA1F1B1FA81F129
:1019E0001A4A42F82100FFF711FF044607E0FFF70B
:1019F0000DFF001BB0F57A7F01D9032038BD1448D4
:101A0000406800F48030B0F5803FF0D101204104FF
:101A100091FAA1F1B1FA81F10C4A42F82100FFF7E5
:101A2000F5FE044607E0FFF7F1FE001BB0F57A7FF4
:101A300001D90320E2E70648406800F40030B0F521
:101A4000003FF0D10020D9E74038024000000E42AC
:101A500000700040F8B5044600250026207800F00C
:101A6000010020B9207800F00200022866D1002091
:101A7000CE498866FFF7CAFE054606E0FFF7C6FEB8
:101A8000401B022801D90320F8BDC9480068C0F3F3
:101A9000C0600028F2D1207800F0010098B147F62C
:101AA000C07191FAA1F1B1FA81F1606888404FF0FC
:101AB000E04292FAA2F2B2FA82F2A168914008439F
:101AC000BB4984310860207800F00200022821D14F
:101AD000B7488430006800F0E0404FF0E04191FAF0
:101AE000A1F1B1FA81F120FA01F660688101207B51
:101AF00041EA006040EA0670AD4984310860AC48B4
:101B00008C30006820F01F00E169491E0843A84995
:101B10008C3108600120A5498866FFF777FE0546ED
:101B200006E0FFF773FE401B022801D90320ABE754
:101B30009F480068C0F3C0600028F2D0207800F011
:101B40000400042804D0207800F0080008287DD183
:101B5000002096490867FFF759FE054606E0FFF7A3
:101B600055FE401B022801D903208DE790480068EC
:101B7000C0F340700028F2D1207800F0040004285F
:101B800034D18B488830006800F0E0404FF0E041ED
:101B900091FAA1F1B1FA81F120FA01F647F6C0718C
:101BA00091FAA1F1B1FA81F1206988404FF0706299
:101BB00092FAA2F2B2FA82F26169914008434FF0C0
:101BC000E04191FAA1F1B1FA81F106FA01F108437D
:101BD000774988310860081D006820F4F851206AB0
:101BE000401E41EA002072498C310860207800F0E4
:101BF0000800082834D16E488830006800F0706012
:101C00004FF0706191FAA1F1B1FA81F120FA01F679
:101C100047F6C07191FAA1F1B1FA81F120698840CB
:101C20004FF0706191FAA1F1B1FA81F106FA01F178
:101C300008434FF0E04292FAA2F2B2FA82F2A169AE
:101C4000914008435A498831086000E01CE0081DB3
:101C5000006820F44030616A084355498C310860BF
:101C6000012052490867FFF7D1FD054606E0FFF75E
:101C7000CDFD401B022801D9032005E74C48006830
:101C8000C0F340700028F2D0207800F02000202817
:101C90007ED100BF0020009045484030006840F0F1
:101CA00080504349403108600846006800F0805089
:101CB000009000BF00BF3F48006840F480703D497D
:101CC0000860FFF7A3FD054606E0FFF79FFD401BF8
:101CD000022801D90320D7E63648006800F4807056
:101CE0000028F2D032487030006800F440764EB3DD
:101CF000208D00F44070B04224D02D487030006830
:101D000020F4407601202C49086000200860284813
:101D100070300660006800F0010098B1FFF776FDB2
:101D2000054608E0FFF772FD401B41F2883188420A
:101D300001D90320A8E61E4870300068C0F34000B7
:101D40000028EFD000BF208D00F44070B0F5407F38
:101D50000CD117480830006820F4F810174AA16A1F
:101D60001140084312490831086007E01048083064
:101D7000006820F4F8100E49083108600C487030F3
:101D80000068218DC1F30B0108430949703100E05F
:101D900001E0086000BF207800F01000102803D197
:101DA00094F82C000649086000206DE600004742C8
:101DB0000038024000700040400E4742FFFCFF0F19
:101DC000E011474270B504460D4600266D48006894
:101DD00000F00F00A84209D26A490D700846006859
:101DE00000F00F00A84201D0012070BD207800F063
:101DF0000200022807D16448006820F0F000A168C2
:101E0000084361490860207800F00100002877D07D
:101E10006068012807D15C4808380068C0F340407A
:101E2000B8B90120E1E76068022802D060680328A1
:101E300007D1554808380068C0F3406048B9012010
:101E4000D3E7514808380068C0F3400008B90120C2
:101E5000CBE74D48006820F00300616808434A4919
:101E60000860FFF7D3FC06466068012810D108E03F
:101E7000FFF7CCFC801B41F28831884201D9032056
:101E8000B3E74148006800F00C000428F0D137E0C7
:101E90006068022810D108E0FFF7B8FC801B41F20F
:101EA0008831884201D903209FE73748006800F055
:101EB0000C000828F0D123E06068032810D108E066
:101EC000FFF7A4FC801B41F28831884201D903202E
:101ED0008BE72D48006800F00C000C28F0D10FE0D3
:101EE00008E0FFF793FC801B41F28831884201D95A
:101EF00003207AE72448006800F00C000028F0D1A5
:101F00002048006800F00F00A84209D91D490D7053
:101F10000846006800F00F00A84201D0012064E7E5
:101F2000207800F00400042807D11748006820F446
:101F3000E050E168084314490860207800F0080088
:101F4000082808D11048006820F46040216940EA60
:101F5000C1000D49086000F071F80B49096801F0F3
:101F6000F001F02292FAA2F2B2FA82F2D140074ACC
:101F7000515CC840064908600020FFF773FC002050
:101F800033E70000003C02400838024026BA00084F
:101F9000F40000200F2202600D4A126802F00302D2
:101FA00042600B4A126802F0F0028260084A12682E
:101FB00002F4E052C260064A126802F46042D2089B
:101FC0000261044A126802F00F020A6070470000C2
:101FD00008380240003C0240014800687047000099
:101FE000F400002000B5FFF7F7FF0749096801F486
:101FF000E0514FF4E05292FAA2F2B2FA82F2D140EA
:10200000024A515CC84000BD0838024036BA000898
:1020100000B5FFF7E1FF0749096801F460414FF49B
:10202000604292FAA2F2B2FA82F2D140024A515CC4
:10203000C84000BD0838024036BA000870B500211B
:10204000002200230020274C246804F00C0424B153
:10205000042C04D0082C41D103E0234840E023485D
:102060003EE0204C241F246804F03F011D4C241F37
:10207000246804F4800484B11C4CB4FBF1F5194CC1
:10208000241F246847F6C076344096FAA6F6B6FABE
:1020900086F6F44005FB04F20FE0134CB4FBF1F5B7
:1020A000104C241F246847F6C076344096FAA6F6F2
:1020B000B6FA86F6F44005FB04F20A4C241F2468A5
:1020C00004F440344FF4403595FAA5F5B5FA85F59A
:1020D000EC40641C6300B2FBF3F001E0024800BF77
:1020E00000BF70BD083802400024F400001BB70098
:1020F00038B504460025207800F00100002874D08F
:10210000F748006800F00C0004280DD0F44800687F
:1021100000F00C00082813D1F148001F006800F4FB
:102120008000B0F5800F0BD1ED4808380068C0F38F
:102130004040002859D06068002856D1012038BDA1
:1021400000BF6068B0F5803F08D1E54808380068F6
:1021500040F48030E249083908601EE06068B0F55C
:10216000A02F0DD1DE480838006840F48020DC49FB
:10217000083908600846006840F4803008600CE0C8
:10218000D7480838006820F48030D54908390860FD
:102190000846006820F48020086000BF606890B1A5
:1021A000FFF734FB054606E0FFF730FB401B6428D1
:1021B00001D90320C3E7CA4808380068C0F340408B
:1021C0000028F1D011E0FFF721FB054606E0FFF7FC
:1021D0001DFB401B642801D90320B0E7C048083824
:1021E0000068C0F340400028F1D1207800F00200E0
:1021F000022869D1BA48006800F00C0058B1B8480C
:10220000006800F00C00082821D1B548001F0068C4
:1022100000F48000D8B9B24808380068C0F3400024
:1022200020B1E068012801D0012088E7AC480838D7
:10223000006820F0F800F82292FAA2F2B2FA82F2D4
:10224000216991400843A649083908603CE0E068EC
:1022500028B30120A3490860FFF7D8FA054606E035
:10226000FFF7D4FA401B022801D9032067E79C48F6
:1022700008380068C0F340000028F1D098480838BA
:10228000006820F0F800F82292FAA2F2B2FA82F284
:1022900021699140084392490839086014E0002000
:1022A00090490860FFF7B2FA054606E0FFF7AEFA7C
:1022B000401B022801D9032041E7894808380068FB
:1022C000C0F340000028F1D1207800F00800082871
:1022D0002CD16069A8B1012083490860FFF796FA04
:1022E000054606E0FFF792FA401B022801D90320B9
:1022F00025E77B486C300068C0F340000028F1D02F
:1023000014E0002078490860FFF780FA054606E0EF
:10231000FFF77CFA401B022801D903200FE7704821
:102320006C300068C0F340000028F1D1207800F044
:10233000040004287FD100BF002000906848383096
:10234000006840F0805066493831086008460068EF
:1023500000F08050009000BF00BF6448006840F467
:10236000807062490860FFF751FA054606E0FFF702
:102370004DFA401B022801D90320E0E65B480068C3
:1023800000F480700028F2D000BFA068012808D1B6
:1023900053486830006840F00100514968310860D6
:1023A0001DE0A06805280DD14D486830006840F058
:1023B00004004B49683108600846006840F001009D
:1023C00008600CE046486830006820F0010044498D
:1023D000683108600846006820F00400086000BF0B
:1023E000A068A0B1FFF712FA054608E0FFF70EFA61
:1023F000401B41F28831884201D903209FE63848CA
:1024000068300068C0F340000028EFD013E0FFF709
:10241000FDF9054608E0FFF7F9F9401B41F2883164
:10242000884201D903208AE62D4868300068C0F34D
:1024300040000028EFD1A069F0B32948006800F0FF
:102440000C00082871D0A069022858D10020254925
:102450000866FFF7DBF9054606E0FFF7D7F9401BF2
:10246000022801D903206AE61D4808380068C0F335
:1024700040600028F1D1D4E90701084347F6C07253
:1024800092FAA2F2B2FA82F2616A91400843012202
:10249000A16AC2EB51014FF4403292FAA2F2B2FAB1
:1024A00082F2914008434FF0706292FAA2F2B2FABF
:1024B00082F2E16A914000E039E008430849091FCF
:1024C0000860012007490866FFF7A0F905460FE0FC
:1024D000FFF79CF9401B02280AD903202FE60000D1
:1024E0000838024000004742800E4742007000401A
:1024F00010480068C0F340600028E9D017E00020D1
:102500000D490866FFF782F9054606E0FFF77EF9F8
:10251000401B022801D9032011E606480068C0F3D9
:1025200040600028F2D102E0FFE7012007E600202A
:1025300005E6000000380240000047420246002342
:10254000106800F1500303EB81031868704710B561
:102550000023046804F1500303EB81031A6010BDEB
:102560002DE9F04104460D461646002700BF207FA6
:10257000012802D10220BDE8F0810120207700BFB0
:102580000220607700BFCA2021684862532021687A
:10259000486200BF2068806800F48060E0B1FFF707
:1025A00035F9074612E0FFF731F9C01BB0F57A7F25
:1025B0000CD900BFFF202168486200BF032060776C
:1025C00000BF0020207700BF0320D4E72068C06848
:1025D000C0F380000028E6D12068806820F4806085
:1025E00021688860FFF712F9074612E0FFF70EF93D
:1025F000C01BB0F57A7F0CD900BFFF20216848626C
:1026000000BF0320607700BF0020207700BF0320B9
:10261000B1E72068C068C0F380000028E6D02068D9
:10262000806820F007002168886020688068304357
:1026300021688860206845612068806840F4806077
:102640002168886000BFFF202168486200BF012028
:10265000607700BF0020207700BF00BF8BE700003D
:1026600010B504460CB9012010BD607F20B90020D0
:102670002077204600F04EF80220607700BFCA2085
:102680002168486253202168486200BF204601F05B
:1026900089FF40B100BFFF202168486200BF0420CD
:1026A00060770120E0E720688068194908402168C8
:1026B0008860216960680843616908432168896806
:1026C0000843216888602168E06808612068016922
:1026D000208941EA0040216808612068C06820F034
:1026E00080002168C8602068006C20F48020216888
:1026F00008642068006CA16908432168086400BF71
:10270000FF202168486200BF012060770020ABE70E
:10271000BFFF8FFF034A0168914202D10121024AA3
:1027200011607047002800403C0E47422DE9F041FF
:1027300004460D461646002700BF207F012802D11F
:102740000220BDE8F0810120207700BF02206077E1
:102750004EB9687800F01000102804D1687800F0B5
:10276000EF000A30687086B9E87801F00EFF0304C4
:10277000687801F00AFF43EA0023A87801F005FF1A
:102780000343287843EA403711E0687801F0F2FE0D
:102790000746A87801F0EEFE0746E878000469785D
:1027A00040EA0120A9780843297840EA413700BF70
:1027B000CA202168486253202168486200BF204631
:1027C00001F0F0FE60B100BFFF202168486200BF49
:1027D0000420607700BF0020207700BF0120B0E711
:1027E00016483840216848602068C06820F08000A2
:1027F0002168C8602068806800F0200080B9204609
:1028000000F0B8F860B100BFFF202168486200BF47
:102810000420607700BF0020207700BF012090E7F0
:1028200000BFFF202168486200BF0120607700BF21
:102830000020207700BF00BF83E700003FFFFF00BC
:102840002DE9F04104460D461646002700BF207FC3
:10285000012802D10220BDE8F0810120207700BFCD
:1028600002206077CEB92068806800F0400000B197
:1028700002E00020E87000BF287801F086FE030423
:10288000687801F082FE43EA0023A87801F07DFE1B
:102890000343E87843EA004716E02068806800F0C8
:1028A000400020B1287801F065FE074602E00020D4
:1028B000E87000BF28780004697840EA0120A97810
:1028C0000843E97840EA014700BFCA20216848620E
:1028D00053202168486200BF204601F063FE60B1CA
:1028E00000BFFF202168486200BF0420607700BF5E
:1028F0000020207700BF0120ADE71D483840216847
:1029000008602068806820F4802021688860D5E90C
:1029100003010843216889680843216888602068AA
:10292000C06820F080002168C8602068806800F0DE
:10293000200080B9204600F01DF860B100BFFF20E4
:102940002168486200BF0420607700BF0020207724
:1029500000BF01207FE700BFFF202168486200BF61
:102960000120607700BF0020207700BF00BF72E722
:102970007F7F7F0070B5044600252068C06820F086
:10298000A0002168C860FEF741FF054607E0FEF79A
:102990003DFF401BB0F57A7F01D9032070BD206850
:1029A000C06800F020000028F1D00020F6E710B544
:1029B00004460CB9012010BD606A00B900BF0021B7
:1029C000A16294F8510028B9002084F850002046F4
:1029D00000F034F8022084F851002068006820F0EC
:1029E000400021680860D4E901010843E168084318
:1029F0002169084361690843218B01F40071084390
:102A0000E1690843216A0843A16A08432168086014
:102A10000421A06901EA1040616A08432168486006
:102A20002068C06920F400602168C86100206065EA
:102A3000012084F851000020BDE7000010B586B0E9
:102A400004461249206888421ED100BF0020009031
:102A50000F48006840F480100D490860084600687F
:102A600000F48010009000BF00BF4FF46070019030
:102A7000022002900020039003200490052005907E
:102A800001A90448FEF7AEFD06B010BD005001409C
:102A900044380240001402402DE9FE4F04460D4622
:102AA00016461F46DDF830804FF0000A00200290E5
:102AB00081464FF0010B019000BF94F850000128AF
:102AC00002D10220BDE8FE8F012084F8500000BF33
:102AD000FEF79CFE814694F851A060680290BAF11E
:102AE000010F0BD00298B0F5827F04D1A06810B915
:102AF000BAF1040F02D002200190D2E00DB106B16C
:102B000017B901200190CCE094F85100012802D1BE
:102B1000052084F8510000206065A663E787A78739
:102B20002563E786A786206460642068006800F05B
:102B30004000402805D02068006840F0400021682F
:102B40000860E068B0F5006F43D1606810B1E08EB6
:102B5000012806D128882168C860AD1CE08E401E7F
:102B6000E0862FE0BBF1000F10D0E08E70B120683E
:102B7000806800F00200022808D128882168C86017
:102B8000AD1CE08E401EE0864FF0000BE08F68B178
:102B90002068806800F0010040B12068C068308083
:102BA000B61CE08F401EE0874FF0010B08F10100DA
:102BB00040B1FEF72BFEA0EB0900404502D30320F5
:102BC00001906EE0E08E0028CCD1E08F0028C9D1C2
:102BD00042E0606810B1E08E012806D128782168B3
:102BE00008736D1CE08E401EE0862FE0BBF1000FE5
:102BF00010D0E08E70B12068806800F002000228DA
:102C000008D115F8010B21680873E08E401EE0869C
:102C10004FF0000BE08F68B12068806800F0010081
:102C200040B12068C06806F8010BE08F401EE087C5
:102C30004FF0010B08F1010040B1FEF7E7FDA0EBFA
:102C40000900404502D3032001902AE0E08E0028CD
:102C5000CCD1E08F0028C9D1434601220221204671
:102C6000CDF8009001F0D1FC10B10320019018E0E4
:102C70004A464146204601F0B4FC20B101200190B3
:102C8000202060650DE0A06850B900BF00200090D2
:102C90002068C068009020688068009000BF00BF76
:102CA00000BF012084F8510000BF002084F85000CC
:102CB00000BF019806E7042808D14FF0E021096918
:102CC00041F004014FF0E022116107E04FF0E021F4
:102CD000096921F004014FF0E0221161704770B5DD
:102CE00004462546681EB0F1807F01D301200FE025
:102CF000681E4FF0E02148610F214FF0FF3001F0D6
:102D000025FC00204FF0E0218861072008610020A9
:102D100070BD7047704710B50346002200BF93F89E
:102D20003800012801D1022010BD012083F83800AD
:102D300000BF22F0FF00CC6840EA040222F4407099
:102D40008C6840EA040222F480604C6840EA040285
:102D500022F400600C6840EA040222F480500C69FE
:102D600040EA040222F400504C6940EA040222F4D2
:102D700080408C6940EA040222F400408C6940EAF9
:102D800004021868426400BF002083F8380000BFC6
:102D900000BFC9E7024600BF92F83800012801D100
:102DA00002207047012082F8380000BF022082F81C
:102DB00039001068406820F070001368586010688F
:102DC00040680B681843136858601068806820F0EA
:102DD000800013689860106880684B681843136817
:102DE0009860012082F8390000BF002082F8380086
:102DF00000BF00BFD5E710B504460CB9012010BDD7
:102E000094F8390028B9002084F83800204600F0F2
:102E10000CF8022084F83900211D206801F012FD11
:102E2000012084F839000020E9E77047014608686E
:102E3000C06840F001000A68D0600868006840F08F
:102E400001000A68106000207047704710B5044602
:102E500020680069C0F34000D8B12068C068C0F3A2
:102E60004000B0B16FF002002168086101202076B7
:102E70002068806900F0030018B12046FFF7E5FFE5
:102E800005E0204600F042F9204600F067FA0020F5
:102E9000207620680069C0F38000D8B12068C0683F
:102EA000C0F38000B0B16FF0040021680861022017
:102EB00020762068806900F4407018B12046FFF742
:102EC000C4FF05E0204600F021F9204600F046FA54
:102ED0000020207620680069C0F3C000D8B12068C7
:102EE000C068C0F3C000B0B16FF00800216808618D
:102EF000042020762068C06900F0030018B1204645
:102F0000FFF7A3FF05E0204600F000F9204600F09F
:102F100025FA0020207620680069C0F30010D8B19F
:102F20002068C068C0F30010B0B16FF010002168D5
:102F30000861082020762068C06900F4407018B14C
:102F40002046FFF782FF05E0204600F0DFF820462C
:102F500000F004FA002020762068006900F00100EB
:102F600058B12068C06800F0010030B16FF0010076
:102F700021680861204600F019FA20680069C0F352
:102F8000C01058B12068C068C0F3C01030B16FF0F5
:102F90008000216808612046FFF7BBFE20680069B9
:102FA000C0F3801058B12068C068C0F3801030B101
:102FB0006FF0400021680861204600F003FA2068A5
:102FC0000069C0F3401058B12068C068C0F34010D9
:102FD00030B16FF02000216808612046FFF79AFEAB
:102FE00010BD000010B586B004462068B0F1804FD7
:102FF0000DD10F2001900220029000200390049038
:103000000120059001A93748FEF7ECFA67E0364940
:10301000206888420DD130200190022002900020CB
:10302000039004900220059001A93048FEF7DAFAD7
:1030300055E02F49206888420ED14FF4704001902E
:10304000022002900020039004900220059001A924
:103050002848FEF7C7FA42E02749206888421BD17A
:103060000120019002200290002003900490022091
:10307000059001A92148FEF7B5FA4FF4E050019000
:10308000022002900020039004900220059001A9E4
:103090001B48FEF7A7FA22E01A49206888420DD1A2
:1030A000E42001900220029000200390049003206D
:1030B000059001A91148FEF795FA10E01249206821
:1030C00088420CD140200190022002900020039001
:1030D00004900920059001A90948FEF783FA06B07B
:1030E00010BD000000000240000400400004024047
:1030F00000080040000C0240000C0040002002408C
:10310000001C02400004014000180040704770B5E8
:1031100004460D46164600BF94F83800012801D138
:10312000022070BD012084F8380000BF022084F81E
:10313000390036B1042E1BD0082E31D00C2E5ED1B2
:1031400045E02946206801F0FDFB2068806940F0D9
:103150000800216888612068806920F004002168E7
:10316000886120688069296908432168886147E08F
:103170002946206801F01EFC2068806940F4006048
:10318000216888612068806920F4806021688861F6
:1031900020688069296940EA0120216888612FE060
:1031A0002946206801F042FC2068C06940F0080010
:1031B0002168C8612068C06920F004002168C861E6
:1031C0002068C069296908432168C86118E0294658
:1031D000206801F067FC2068C06940F40060216845
:1031E000C8612068C06920F480602168C8612068D7
:1031F000C069296940EA01202168C86100E000BF78
:1032000000BF012084F8390000BF002084F8380096
:1032100000BF00BF85E710B504460CB9012010BD02
:1032200094F8390028B9002084F83800204600F0CE
:103230000DF8022084F83900211D206801F002FBFE
:10324000012084F839000020E9E7000008B5016892
:10325000B1F1804F0FD100BF0021009139490968B9
:1032600041F00101374A11601146096801F001017E
:10327000009100BF65E0344A016891420FD100BF60
:10328000002100912F49096841F002012D4A116087
:103290001146096801F00201009100BF51E02B4A7C
:1032A000016891420FD100BF0021009125490968B2
:1032B00041F00401234A11601146096801F004013C
:1032C000009100BF3DE0224A016891420FD100BF4A
:1032D000002100911B49096841F00801194A116059
:1032E0001146096801F00801009100BF29E0194A60
:1032F0000168914211D100BF002100911149091DBF
:10330000096841F002010F4A121D11601146096857
:1033100001F00201009100BF13E00F4A01689142E1
:103320000FD100BF002100910649096841F040011A
:10333000044A11601146096801F04001009100BF84
:1033400000BF08BD403802400004004000080040B3
:10335000000C0040000401400018004070470000CD
:1033600030B504460D4601222946206801F0DCFAFA
:103370000C492068884203D00B492068884201D15B
:10338000012000E0002028B12068406C40F400409B
:10339000216848642068006840F0010021680860E6
:1033A000002030BD000001400004014010B504467B
:1033B00003492068884201D1FEF72EFA10BD0000B3
:1033C00000100040704770472DE9F0470446206820
:1033D00005682068C668206847694FF00008C14644
:1033E00005F00F08B8F1000F0AD105F0200038B140
:1033F00006F0200020B1204601F0C2FBBDE8F087B6
:10340000B8F1000F6DD007F0010018B906F4907004
:10341000002866D005F0010030B106F4807018B1C4
:10342000E06B40F00100E06305F0040030B107F00C
:10343000010018B1E06B40F00200E06305F002000B
:1034400030B107F0010018B1E06B40F00400E06318
:1034500005F0080030B107F0010018B1E06B40F052
:103460000800E063E06B68B305F0200028B106F0C7
:10347000200010B1204601F083FB20684069C0F3B2
:103480008019E06B00F0080010B9B9F1000F22D0EC
:10349000204601F055FB2068406900F04000B0B1C3
:1034A0002068406920F0400021684861606B50B19D
:1034B0001748616B0865606BFDF7A3FE10B1606B88
:1034C000016D88470CE02046FFF77DFF08E02046AD
:1034D000FFF779FF04E02046FFF775FF0020E06367
:1034E0008CE705F0800030B106F0800018B120466E
:1034F00001F048FD82E705F0400030B106F04000E1
:1035000018B1204601F02CFB78E700BF76E70000F9
:103510002D4B000810B504460CB9012010BDA06960
:1035200000B100E000BF94F8390028B9002084F809
:103530003800204600F028F8242084F8390020685C
:10354000C06820F400502168C860204601F066FB86
:103550002068006920F49040216808612068406973
:1035600020F02A00216848612068C06840F40050BB
:103570002168C8600020E063202084F8390084F8C6
:103580003A000020CAE7000010B586B00446BF49E3
:103590002068884246D100BF00200090BC480068E7
:1035A00040F08040BA4908600846006800F080405A
:1035B000009000BF00BF4FF4C07001900220029045
:1035C00001200390032004900820059001A9B14830
:1035D000FEF708F8B048B14908604FF02060486035
:1035E0000021AE488160C1604FF48061016100211B
:1035F00041618161C16101624162FDF73BFF18B128
:10360000CA21A7A001F08AFE00BFA44860638463BA
:1036100000BF002205215220FEF778F95220FEF764
:1036200068F930E1A2492068884245D100BF0020F6
:1036300000909748006840F00040954908600846AF
:10364000006800F00040009000BF00BF0320019020
:10365000022002900120039003200490082005908E
:1036600001A98C48FDF7BEFF8B484830914908609E
:103670000005486000218F488160C1604FF480617F
:103680000161002141618161C16101624162FDF717
:10369000F1FE18B1F72182A001F040FE00BF85487D
:1036A0006063846300BF002205215320FEF72EF9DA
:1036B0005320FEF71EF9E6E07F492068884248D192
:1036C00000BF002000907248001D006840F010000C
:1036D0006F49091D08600846006800F0100000905E
:1036E00000BF00BFC0200190022002900120039083
:1036F000032004900720059001A97048FDF772FF90
:103700006F48704908604FF00060486000216D48C4
:103710008160C1604FF4806101610021416181617C
:10372000C16101624162FDF7A5FE20B14FF49271C3
:103730005BA001F0F3FD00BF62486063846300BFDB
:10374000002205212520FEF7E1F82520FEF7D1F81B
:1037500099E05D492068884248D100BF0020009070
:103760004B48006840F480204949086008460068DA
:1037700000F48020009000BF00BF4FF44070019023
:10378000022002900120039003200490072005905E
:1037900001A94E48FDF726FF3F4830384C490860E4
:1037A0004FF000604860002149488160C1604FF4DB
:1037B00080610161002141618161C16101624162F9
:1037C000FDF758FE20B140F2511135A001F0A6FDE1
:1037D00000BF3F486063846300BF002205212720AB
:1037E000FEF794F82720FEF784F84CE0394920686A
:1037F000884248D100BF002000902548001D006885
:1038000040F020002249091D08600846006800F0C9
:103810002000009000BF00BF4FF4844001900220C0
:10382000029001200390032004900820059001A934
:103830002948FDF7D7FE2248183828490860800536
:103840004860002125488160C1604FF480610161BA
:10385000002141618161C16101624162FDF70AFE9F
:1038600020B14FF4BF710EA001F058FD00BF1B48FE
:103870006063846300BF002205214720FEF746F8FD
:103880004720FEF736F806B010BD00000078004073
:1038900040380240001002405860024034100020BE
:1038A0002E2E2F5372632F75736172742E63000076
:1038B000007C0040941000200010014000040240F1
:1038C00040640240F410002000480040000C024018
:1038D000541100200014014000180240B4110020CF
:1038E00070472DE9F84304460D4616461F464FF033
:1038F000000994F8390020285CD105B116B90120DF
:10390000BDE8F88300BF94F83800012801D10220F7
:10391000F6E7012084F8380000BF0020E063212092
:1039200084F83900FDF772FF8146A684E6842BE017
:10393000E08C401EE084A068B0F5805F16D14B4655
:10394000002280212046009701F050FB08B103209F
:10395000D6E7A846B8F80000C0F308002168486020
:10396000206908B9AD1C0FE06D1C0DE04B4600222C
:1039700080212046009701F039FB08B10320BFE702
:1039800015F8010B21684860E08C0028D0D14B4627
:10399000002240212046009701F028FB08B10320B7
:1039A000AEE7202084F8390000BF002084F83800FA
:1039B00000BFA5E70220A3E7704700BFFEE72DE99F
:1039C000F04F0C4609AD95E8E010DDE90D890021C6
:1039D00006E014F801A0C1F1020B00F80BA0491C8D
:1039E000032904DA14F801A0BAF1000FF1D190F81C
:1039F00003A062F3020A80F803A0B0F803A063F307
:103A0000891AA0F803A090F804A065F3850A80F84D
:103A100004A0B0F807A066F3090AA0F807A0B0F860
:103A200008A067F38C0AA0F808A0B0F809A06CF30E
:103A30004F1AA0F809A0B0F80CA068F38C0AA0F8FF
:103A40000CA0B0F80DA069F34F1AA0F80DA0BDE8C6
:103A5000F08F000010B50F480F490860052048603E
:103A600000210D488160C1604FF4003101614901BE
:103A70004161002181610121C16100210162416236
:103A80008162C162FDF78AF918B1502103A001F0EB
:103A900045FC10BD006400406C0E00202E2E2F53FC
:103AA00072632F63616E2E630000000010B5104832
:103AB000104908600520486000210E4881604FF0E1
:103AC0004071C1604FF40031016149014161002141
:103AD00081610121C1610021016241628162C16293
:103AE000FDF75CF918B1662103A001F017FC10BDC9
:103AF00000680040B00E00202E2E2F5372632F63FB
:103B0000616E2E630000000008B500BF0020009029
:103B10002248006840F40010204908600846006808
:103B200000F40010009000BF00BF00BF0020009014
:103B30000846006840F4800008600846006800F409
:103B40008000009000BF00BF002205210C20FDF77F
:103B5000DDFE0C20FDF7CDFE002205210E20FDF735
:103B6000D5FE0E20FDF7C5FE002205211120FDF730
:103B7000CDFE1120FDF7BDFE002205213920FDF705
:103B8000C5FE3920FDF7B5FE002205213A20FDF7DC
:103B9000BDFE3A20FDF7ADFE08BD00003038024002
:103BA00000B58BB014220D4906A8FCF701FC0021DA
:103BB00006A804F016FC0A490860142207491431CB
:103BC00001A8FCF7F5FB002101A804F00AFC054957
:103BD000086005F071FB0BB000BD0000F0B90008F3
:103BE0004C0000206400002000B587B000BF00201A
:103BF00001908348006840F0100081490860084641
:103C0000006800F01000019000BF00BF00BF00205E
:103C100001900846006840F002000860084600680D
:103C200000F00200019000BF00BF00BF0020019023
:103C30000846006840F0400008600846006800F050
:103C40004000019000BF00BF00BF00200190084667
:103C5000006840F0010008600846006800F00100BC
:103C6000019000BF00BF00BF00200190084600681F
:103C700040F0080008600846006800F00800019065
:103C800000BF00BF00BF002001900846006840F45C
:103C9000807008600846006800F48070019000BFE2
:103CA00000BF00BF002001900846006840F080007F
:103CB00008600846006800F08000019000BF00BF67
:103CC00000BF002001900846006840F02000086016
:103CD0000846006800F02000019000BF00BF00BF50
:103CE000002001900846006840F004000860084683
:103CF000006800F00400019000BF00BF002240F601
:103D00000C014048FDF77CFD002242F2FE113E48C6
:103D1000FDF776FD00223C213C48FDF771FD0022B5
:103D200044F240013A48FDF76BFD40F60C0002906A
:103D30000120039000200490059002A93148FDF76E
:103D400051FC4FF4807002903248039000200490A0
:103D500002A93148FDF746FC42F2FE100290012014
:103D6000039000200490059002A92748FDF73AFC33
:103D70006020029000200390049002A92148FDF7E2
:103D800031FC3C200290012003900020049005901B
:103D900002A91E48FDF726FC40F2024002900020D6
:103DA0000390049002A91A48FDF71CFC44F240005D
:103DB00002900120039000200490059002A914486D
:103DC000FDF710FC3C20029000200390049002A913
:103DD0001248FDF707FC4FF480600290002003902A
:103DE000049002A90E48FDF7FDFB20200290002060
:103DF0000390049002A90B48FDF7F4FB07B000BD47
:103E0000303802400010024000180240001C0240FE
:103E1000001402400000111000040240000802409B
:103E2000000C02400000024000B587B02C482D492C
:103E30000860002048607C212A488160FF21C16021
:103E40000021016141618161FEF70AFC18B14C213A
:103E500025A001F063FA00212248FEF76FFB43F230
:103E6000F221884230D00A208DF808001E208DF8FB
:103E7000090000208DF80A0005900690002202A992
:103E80001848FEF7DDFC18B1592117A001F046FAD9
:103E900003208DF8040010208DF8050012208DF805
:103EA000060011208DF80700002201A90D48FEF739
:103EB0003DFC18B163210CA001F030FA43F2F2226C
:103EC00000210848FEF743FB002211460548FEF793
:103ED00047FB18B16C2104A001F020FA07B000BD27
:103EE00000280040105200202E2E2F5372632F7294
:103EF00074632E630000000010B50F480F4908607E
:103F00004FF48270486000210C488160C1600161FB
:103F100041614FF4007181610021C1610162416220
:103F200081620A21C162FEF742FD18B14F2104A04F
:103F300001F0F4F910BD000000500140B85100201C
:103F40002E2E2F5372632F7370692E6300000000B2
:103F500000B587B013481449086059204860002113
:103F600011488160C1600161FFF755F920B140F24D
:103F70004D110EA001F0D2F96020009000200190B8
:103F800002900490002269460748FFF7C0F820B16C
:103F90004FF4AB7105A001F0C1F90348FFF722F817
:103FA00007B000BD001800407C5100202E2E2F537A
:103FB00072632F74696D2E630000000000B589B034
:103FC0004FF0804029490860592048600021274867
:103FD000816040F6C311C16000210161FFF71BF948
:103FE00018B14D2122A001F099F900200790089006
:103FF00007A91E48FEF7CEFE18B154211CA001F0FF
:104000008DF9602000904FF47A70019000200290AA
:104010000490002269461548FFF779F818B15D2130
:1040200013A001F07BF9042269461048FFF76FF8EE
:1040300018B162210EA001F071F9082269460B48FF
:10404000FFF765F818B1672109A001F067F90C22A4
:1040500069460648FFF75BF818B16C2104A001F02F
:104060005DF90248FEF7BEFF09B000BD50500020C8
:104070002E2E2F5372632F74696D2E630000000083
:1040800000B589B0204821490860592048600021C6
:104090001E48816040F6C311C16000210161FFF735
:1040A000BAF818B17F211AA001F038F90020079062
:1040B000089007A91548FEF76DFE18B1862114A0D7
:1040C00001F02CF9602000904FF47A7001900020EC
:1040D00002900490002269460C48FFF718F818B1C6
:1040E0008F210BA001F01AF9042269460748FFF757
:1040F0000EF818B1942106A001F010F90348FEF75C
:1041000071FF09B000BD0000000400408C50002089
:104110002E2E2F5372632F74696D2E6300000000E2
:1041200000B589B02A482B49086059204860002111
:104130002848816040F6C311C16000210161FFF78A
:104140006AF818B1A72124A001F0E8F80020079030
:10415000089007A91F48FEF71DFE18B1AE211EA04A
:1041600001F0DCF8602000904FF47A70019000209C
:1041700002900490002269461648FEF7C8FF18B165
:10418000B72115A001F0CAF8042269461148FEF7CC
:10419000BEFF18B1BC2110A001F0C0F8082269468A
:1041A0000C48FEF7B4FF18B1C1210BA001F0B6F81E
:1041B0000C2269460748FEF7AAFF18B1C62106A0DF
:1041C00001F0ACF80348FEF70DFF09B000BD000098
:1041D00000080040C85000202E2E2F5372632F7409
:1041E000696D2E630000000000B589B02A482B4994
:1041F00008605920486000212848816040F6C311BA
:10420000C16000210161FFF706F818B1D92124A08F
:1042100001F084F800200790089007A91F48FEF7D6
:10422000B9FD18B1E0211EA001F078F860200090DF
:104230004FF47A70019000200290049000226946A9
:104240001648FEF764FF18B1E92115A001F066F8E1
:10425000042269461148FEF75AFF18B1EE2110A05A
:1042600001F05CF8082269460C48FEF750FF18B1CF
:10427000F3210BA001F052F80C2269460748FEF723
:1042800046FF18B1F82106A001F048F80348FEF7F0
:10429000A9FE09B000BD0000000C00400451002040
:1042A0002E2E2F5372632F74696D2E630000000051
:1042B00000B591B039483A490860B3204860002100
:1042C0003748816040F6C311C1600021016141613E
:1042D000FEF7A1FF20B140F20D1132A001F01EF84F
:1042E00000200F9010900FA92D48FEF753FD20B12C
:1042F0004FF48A712BA001F011F8602008904FF460
:104300007A70099000200A900B900C900D900E90FE
:10431000002208A92248FEF7FAFE20B14FF490715E
:1043200020A000F0FBFF042208A91D48FEF7EFFEC5
:1043300020B140F225111BA000F0F0FF082208A9CF
:104340001748FEF7E4FE20B14FF4957115A000F078
:10435000E5FF0C2208A91248FEF7D9FE20B140F271
:104360002F1110A000F0DAFF0020019002900390BE
:10437000049005904FF4005006900020079001A98A
:104380000748FEF7C8FC20B140F23B1105A000F041
:10439000C5FF0348FEF726FE11B000BD0004014032
:1043A000405100202E2E2F5372632F74696D2E639F
:1043B0000000000010B50C480C4908604FF4E130D3
:1043C0004860002109488160C16001610C214161A0
:1043D00000218161C161FFF79DF818B1552104A04A
:1043E00000F09CFF10BD000000780040F40E00209B
:1043F0002E2E2F5372632F75736172742E6300001B
:1044000010B50C480C4908604FF4E13048600021B9
:1044100009488160C16001610C2141610021816115
:10442000C161FFF777F818B1672104A000F076FFAB
:1044300010BD0000007C0040340F00202E2E2F53B2
:1044400072632F75736172742E63000010B50C488F
:104450000C4908600C48486000210A488160C1602E
:104460004FF4806101610C21416100218161C161D2
:10447000FFF750F818B17A2104A000F04FFF10BDEB
:1044800000100140740F0020A08601002E2E2F5333
:1044900072632F75736172742E63000010B50C483F
:1044A0000C4908604FF4E130486000210948816000
:1044B000C16001610C21416100218161C161FFF78F
:1044C00029F818B18D2104A000F028FF10BD0000CC
:1044D00000480040B40F00202E2E2F5372632F751A
:1044E000736172742E63000010B50C480C490860AB
:1044F0004FF4E1304860002109488160C1600161EA
:104500000C21416100218161C161FFF703F818B1FD
:10451000A02104A000F002FF10BD00000014014023
:10452000F40F00202E2E2F5372632F757361727457
:104530002E63000000BFFEE77047000002480068DD
:10454000C0F30220704700000CED00E010B5002819
:1045500007DA0A07140E054A00F00F031B1FD45494
:1045600003E00A07130E024A135410BD18ED00E0D1
:1045700000E400E0014600BF080900EB80004200B3
:1045800001F00F001044C0B270470146002203E062
:10459000521CA1F10A00C1B20A29F9D2100741EA5E
:1045A0001060704770B5044600252068C06800F0B0
:1045B0004000A0B9681E2168C860FDF727F90546CC
:1045C00007E0FDF723F9401BB0F57A7F01D90320FE
:1045D00070BD2068C06800F040000028F1D00020C5
:1045E000F6E7F8B504460D4616462B460022802114
:1045F0002046009600F009F828B1606D40F02000D8
:1046000060650320F8BD0020FCE72DE9F041044679
:104610000E4617461D46DDF818803FE0681CE0B3E3
:104620002DB1FDF7F3F8A0EB0800A84236D32068BF
:10463000406820F0E000216848606068B0F5827F43
:104640000DD1A068B0F5004F03D0A068B0F5806F21
:1046500005D12068006820F0400021680860A06A49
:10466000B0F5005F0ED100BF206800684DF6FF7105
:104670000840216808602068006840F40050216804
:10468000086000BF012084F8510000BF002084F8BA
:10469000500000BF0320BDE8F081FFE7206880687C
:1046A0003040B04201D1012000E00020B842B5D135
:1046B0000020F0E700BF322003F062FEFBE710B5F8
:1046C00003F087FE10BD000010B59EB000BF0020B3
:1046D00000903948006840F080503749086008462B
:1046E000006800F08050009000BF00BF00BF0020B5
:1046F00000903248006840F4404030490860084665
:10470000006800F44040009000BF00BF09201290F4
:104710004FF480301390012017900220189041052B
:10472000199106211A91B4211B9102211C91082193
:104730001D9112A8FDF7DCFC18B1C02120A000F0EB
:10474000EDFDFDF735F918B1C7211DA000F0E6FD1C
:104750000F200D9002200E9000200F904FF4A050DB
:1047600010904FF48050119005210DA8FDF72AFB01
:1047700018B1D52112A000F0D1FD20200190000138
:104780000B9001A8FDF766F918B1DC210CA000F030
:10479000C5FDFDF721FC4FF47A71B0FBF1F4204622
:1047A000FEF79DFA0420FEF786FA00220F21501E24
:1047B000FDF7ACF81EB010BD40380240007000405C
:1047C0002E2E2F5372632F6D61696E2E63000000D1
:1047D0001448006840F470001249086012480068EC
:1047E00040F001001049086000200F4908310860BE
:1047F0000D4800680D4908400B4908600C48091D28
:104800000860081F006820F48020091F086000204D
:1048100005490C3108604FF000600249803908609A
:104820007047000088ED00E000380240FFFFF6FE10
:104830001030002410B50248FEF708FB10BD000040
:1048400014120020002202682C4B98420ED0B0F1C6
:10485000804F0BD02A4B984208D02A4B984205D063
:10486000294B984202D0294B984201D1012300E004
:1048700000231BB122F070024B681A431F4B984271
:1048800020D0B0F1804F1DD01D4B98421AD01D4B47
:10489000984217D01C4B984214D01C4B984211D010
:1048A0001B4B98420ED01B4B98420BD01A4B984290
:1048B00008D01A4B984205D0194B984202D0194B98
:1048C000984201D1012300E000231BB122F4407281
:1048D000CB681A4302608B68C3620B688362074B24
:1048E000984202D0094B984201D1012300E00023F5
:1048F0000BB10B6903630123436170470000014062
:104900000004004000080040000C0040000401408A
:1049100000400140004401400048014000180040B0
:10492000001C00400020004030B50023012404FAA0
:1049300001F3046A9C430462046A02FA01F52C4301
:10494000046230BD30B5002400220023056A25F042
:1049500001050562026A4368846924F0700424F04A
:1049600003040D682C4322F002028D682A430F4D88
:10497000A84202D00E4DA84201D1012500E0002539
:104980006DB122F00802CD682A4322F0040223F41C
:10499000807323F400734D692B438D692B4343606F
:1049A00084614D684563026230BD00000000014033
:1049B0000004014030B5002400220023056A25F0E0
:1049C00010050562026A4368846924F4E04424F413
:1049D00040740D6844EA052422F020028D6842EA02
:1049E0000512104DA84202D00F4DA84201D1012559
:1049F00000E0002585B122F08002CD6842EA051270
:104A000022F0400223F4806323F400634D6943EAFB
:104A100085038D6943EA8503436084614D6885633E
:104A2000026230BD000001400004014030B50024A6
:104A300000220023056A25F480750562026A436836
:104A4000C46924F0700424F003040D682C4322F49C
:104A500000728D6842EA0522104DA84202D0104D26
:104A6000A84201D1012500E0002585B122F40062B1
:104A7000CD6842EA052222F4806223F4805323F4B5
:104A800000534D6943EA05138D6943EA05134360FA
:104A9000C4614D68C563026230BD00000000014082
:104AA0000004014030B5002200230024056A25F4EB
:104AB00080550562036A4468C26922F4E04222F428
:104AC00040720D6842EA052223F400538D6843EAE0
:104AD00005330A4DA84202D0094DA84201D1012553
:104AE00000E0002525B124F480444D6944EA851492
:104AF0004460C2614D680564036230BD000001403E
:104B00000004014010B5034804F0FAFC0148FEF728
:104B10005BFC10BDF40E002010B5034804F0F0FC5F
:104B20000148FEF751FC10BD340F002070B505465A
:104B3000AC6B0020E085E0842046FEF744FC70BDAD
:104B40000168C96821F490710268D16001684969FF
:104B500021F0010102685161202180F83A1070476C
:104B600010B504462068C06820F040002168C86085
:104B7000202084F839002046FEF71EFF002010BDDB
:104B800070B5044694F83A00222844D1A068B0F5E4
:104B9000805F13D1A56A206940B920684068C0F3DE
:104BA00008002880A06A801CA06219E02068406884
:104BB000C0B22880A06A401CA06211E0206938B908
:104BC00020684068C1B2A26A501CA062117007E060
:104BD0002068406800F07F01A26A501CA06211703A
:104BE000E08D401E80B2E08598B92068C06820F44E
:104BF00090702168C8602068406920F00100216839
:104C00004861202084F83A002046FEF769FE002023
:104C100070BD0020FCE70220FAE700002DE9F0411A
:104C2000044600252068056925F44055E0680543E1
:104C3000206805612068C56849F20C6085432169D8
:104C4000A068084361690843E16908430543206897
:104C5000C5602068456925F44075A0690543206852
:104C60004561E069B0F5004F7ED1C44920688842B3
:104C700003D0C349206888425DD1FDF7C9F900EB34
:104C8000C00101EB001061684900B0FBF1F0642144
:104C9000B0FBF1F00601FDF7BBF900EBC00101EB41
:104CA000001061684900B0FBF1F7FDF7B1F900EBC6
:104CB000C00101EB001061684900B0FBF1F0642114
:104CC000B0FBF1F000EBC00101EB0010A7EB80009E
:104CD000322101EBC0006421B0FBF1F000F0F800DC
:104CE00006EB4006FDF794F900EBC00101EB001064
:104CF00061684900B0FBF1F7FDF78AF900EBC001EC
:104D000001EB001061684900B0FBF1F06421B0FBD9
:104D1000F1F000EBC00101EB0010A7EB80003221A5
:104D200001EBC0006421B0FBF1F000F0070030445B
:104D30002168886020E1FDF755F900EBC00101EB27
:104D4000001061684900B0FBF1F06421B0FBF1F0A4
:104D50000601FDF747F900EBC00101EB00106168A7
:104D60004900B0FBF1F700E045E0FDF73BF900EB4F
:104D7000C00101EB001061684900B0FBF1F0642153
:104D8000B0FBF1F000EBC00101EB0010A7EB8000DD
:104D9000322101EBC0006421B0FBF1F000F0F8001B
:104DA00006EB4006FDF71EF900EBC00101EB001019
:104DB00061684900B0FBF1F7FDF714F900EBC001A1
:104DC00001EB001061684900B0FBF1F06421B0FB19
:104DD000F1F000EBC00101EB0010A7EB80003221E5
:104DE00001EBC0006421B0FBF1F000F0070030449B
:104DF00021688860C0E061492068884203D060492A
:104E0000206888425CD1FDF703F900EBC00101EB9B
:104E1000001061688900B0FBF1F6FDF7F9F800EBCE
:104E2000C00101EB001061688900B0FBF1F0642162
:104E3000B0FBF1F000EBC00101EB0010A6EB80002D
:104E4000322101EB00106421B0FBF1F000F0F0061C
:104E5000FDF7DEF800EBC00101EB0010616889008E
:104E6000B0FBF1F06421B0FBF1F006EB0016FDF7AA
:104E7000CFF800EBC00101EB001061688900B0FBC6
:104E8000F1F7FDF7C5F800EBC00101EB0010616818
:104E90008900B0FBF1F06421B0FBF1F000EBC00140
:104EA00001EB0010A7EB8000322101EB0010642120
:104EB000B0FBF1F000F00F003044216888605BE047
:104EC000FDF790F800EBC00101EB0010616889006C
:104ED000B0FBF1F6FDF786F800EBC00101EB001026
:104EE00061688900B0FBF1F06421B0FBF1F000EBE8
:104EF000C00101EB0010A6EB8000322101EB001095
:104F00006421B0FBF1F000F0F006FDF76BF800EB68
:104F1000C00101EB001061688900B0FBF1F0642171
:104F2000B0FBF1F006EB0016FDF75CF800EBC001FA
:104F300001EB001061688900B0FBF1F7FDF752F852
:104F400000EBC00101EB001061688900B0FBF1F0DB
:104F50006421B0FBF1F000EBC00101EB0010A7EB06
:104F60008000322101EB00106421B0FBF1F000F071
:104F70000F00304421688860BDE8F08100100140D6
:104F800000140140014691F8390021282CD188688D
:104F9000B0F5805F0FD10A6A1088C0F308000B6873
:104FA0005860086918B9086A801C086209E0086A34
:104FB000401C086205E00B6A581C086218780B68F0
:104FC0005860C88C401E80B2C88458B90868C06850
:104FD00020F080000B68D8600868C06840F040008E
:104FE0000B68D860002070470220FCE72DE9F041F3
:104FF00004460D4617469846069E21E0701CF8B1FF
:105000002EB1FCF703FCA0EB0800B04218D92068D1
:10501000C06820F4D0702168C8602068406920F022
:10502000010021684861202084F8390084F83A00A2
:1050300000BF002084F8380000BF0320BDE8F081E5
:10504000206800682840A84201D1012000E000202B
:10505000B842D3D00020F1E70FB470B58AB04FF654
:10506000FF7005900FA8009003ADA5208DF80C00EF
:105070000E98C0EB0010801D80B2ADF80D004A48BC
:1050800000788DF80F00FF2204212846FBF7C4FCAE
:105090008DF8100040F20130ADF811000E98012893
:1050A00006D0022809D005280CD0072814D10EE01C
:1050B00040F20110ADF8040014E04FF48170ADF837
:1050C00004000FE040F20310ADF804000AE04FF4D2
:1050D0008270ADF8040005E04FF0FF300AB070BCFC
:1050E0005DF814FB00BF0420ADF806004FF4827099
:1050F000ADF8080003ADBDF8142007212846FBF7E2
:1051000071FC059001ADBDF8142006212846FBF77F
:1051100069FC059003AD002404E0287800F046F80F
:105120006D1C641C072CF8D301AD002404E0287822
:1051300000F03CF86D1C641C062CF8D300241CE025
:10514000009901F11000009091E80D00C968CDE9C7
:1051500007230991069006ADBDF814200F212846BB
:10516000FBF740FC0590002604E0287800F01EF8CC
:105170006D1C761C0F2EF8D3641C0E988442DFDB66
:1051800005AD002404E0287800F010F86D1C641CC4
:10519000022CF8D30020009003480078401C0249FC
:1051A000087000209AE700004000002001B54FF091
:1051B000FF33012269460648FEF793FB00BF04480F
:1051C00000680068C0F3C0100028F8D008BD0000D7
:1051D000F40F002010B5034804F092F90148FEF7DF
:1051E000F3F810BD740F002010B5034804F088F9DF
:1051F0000148FEF7E9F810BDB40F002008B540489B
:10520000006800F01000002879D000BF0020009056
:105210003C480068006800903A4800684068009088
:1052200000BF00BF3748406B0068006800F40020F2
:1052300090BB3448406B0068006820F001003149A1
:10524000496B096808602F48406B00684068C0F5EA
:1052500000702D4908804FF400702A49496B096895
:1052600048602848406B0068006840F400202549E9
:10527000496B096808602348406B0068006840F08B
:1052800001002049496B096808601F4802881F49CE
:105290001F4801F059FD32E0FFE71A48406B0068F3
:1052A000006820F001001749496B0968086015483B
:1052B000406B00684068C0F50070134908804FF4E7
:1052C00000701049496B096848600E48406B0068DF
:1052D000006820F400200B49496B09680860094800
:1052E000406B0068006840F001000649496B09689E
:1052F0000860054802880749054801F025FD08BDFA
:1053000000140140F40F00201800002004050020C4
:10531000040900200407002000BFFEE700BFFEE7ED
:1053200003B401984100009850EAC12018BF04203E
:105330004A0D18BF40F0010040F2FF72B2EB515F1E
:1053400008BF40F00200012808BF052002B07047E6
:10535000EFF310807047000010B5B94A2DED020B35
:105360002DED0C8B82B00F9921F000409FEDB6CB54
:1053700090422CDBA0F140530E9AA3F17F631A43B5
:105380000FD0B349884202DC16D10E98A0B19DED32
:105390000E0B02B0BDEC0C8B02B0BDE8104001F06A
:1053A0008BBA0029C1BF9FEDAC0B02B0BDEC0C8BDA
:1053B00002B0C8BF10BD16E00120FBF75AF802B0DA
:1053C000BDEC0C8B02B0BDE8104001F089BAA44AD4
:1053D0009FEDA59B9FEDA6AB90425EDAA6499FED9F
:1053E000A8CB814208DBB0EE4C0AF0EE6C0A02B0AA
:1053F000BDEC0C8B02B010BD9DED0E0B53EC102BD1
:1054000051EC100B05F0A8FB41EC180B9E4806214F
:10541000B0EE480AF0EE680A784401F039F953EC2E
:10542000182B51EC100B05F097FB41EC1B0B974828
:10543000B0EE480AF0EE680A0421784401F028F939
:1054400053EC182B51EC100B05F086FB53EC192B89
:1054500005F0B2F841EC100B51EC1B0B53EC102B88
:1054600005F05EF941EC100B53EC102B9DED0E0B8B
:1054700051EC100B05F070FB53EC1A2B05F06AFC95
:105480009DED0E1B53EC112B05F064FC53EC1C2B13
:1054900005F060FC41EC100BA9E79FED7D8B9FEDC3
:1054A0007EBB9DED0E0B002953EC192B51EC100B1C
:1054B00052DA05F081F853EC182B05F04DFB41EC66
:1054C000180B77480621B0EE480AF0EE680A7844D7
:1054D00001F0DEF853EC182B51EC100B05F03CFBFF
:1054E00041EC1D0B6F48B0EE480AF0EE680A04214B
:1054F000784401F0CDF853EC182B51EC100B05F06B
:105500002BFB53EC192B05F057F841EC190B51EC20
:10551000180B03F099FE41EC180B53EC192B51ECCE
:105520001D0B05F0FDF853EC182B05F015FB53ECA3
:105530001A2B05F0E7FC41EC100B51EC180B53EC67
:10554000102B05F039F853EC1B2B05F005FB53EC41
:105550001C2B05F0FFFB6DE005F0FCFB53EC182B5A
:1055600005F0FAFA41EC180B03F06EFE41EC1A0B51
:1055700000208DED00AB00909DED000B51EC1A0B5F
:1055800053EC102B05F018F89DED000B41EC1C0BB3
:1055900053EC102B51EC100B05F0DEFA53EC182BEA
:1055A00005F0D8FB53EC1C2B05F0BAF841EC1C0BB2
:1055B0003D48B0EE480AF0EE680A0621784401F052
:1055C00067F853EC182B51EC100B05F0C5FA41ECC1
:1055D0001D0B3648B0EE480AF0EE680A0421784404
:1055E00001F056F853EC182B51EC100B05F0B4FAFF
:1055F00053EC192B04F0E0FF41EC100B51EC1D0BA8
:1056000053EC102B05F08CF853EC1A2B05F0A4FA90
:1056100053EC1C2B04F0D0FF41EC100B53EC102B7F
:105620009DED000B51EC100B04F0C6FF53EC1B2B4F
:1056300005F092FA41EC100BD9E6000000000000E2
:105640000000F03F00000000182D4454FB210940E9
:105650000000F07F000000000000000000000000DB
:105660000000E03F00000000000000000000F03FEC
:10567000075C143326A6913C0000603C000000004B
:10568000182D4454FB21F93F2466000032660000C7
:10569000000000000000E03F0000000000000040AB
:1056A0006E6500007C650000806400008E64000070
:1056B00070B5C1482DED020B2DED0E8B82B0119D02
:1056C00025F000449FEDBEDB9FEDBFEB84423EDB47
:1056D000A4F140511098A1F17F6108430FD0BC485C
:1056E000844202DC28D1109830B39DED100B02B03B
:1056F000BDEC0E8B02B0BDE8704001F0DDB89DED51
:10570000100B53EC1D2B51EC100B05F025FA9DED01
:10571000100B41EC180B53EC1E2B51EC100B05F049
:105720001BFA53EC182B04F047FF41EC100B02B0AE
:10573000BDEC0E8B02B070BD0120FAF79AFE02B0EC
:10574000BDEC0E8B02B0BDE8704001F0C9B8A148B5
:105750009FEDA18B844256DA9DED100BB4F1795F79
:105760000ADA51EC100BFFF7DBFD042808BF01F04B
:10577000C7F89DED100BDAE753EC102B51EC100B32
:1057800005F0EAF941EC190B95480621B0EE490AFB
:10579000F0EE690A784400F07BFF53EC192B51ECD2
:1057A000100B05F0D9F941EC1A0B8E48B0EE490AFE
:1057B000F0EE690A0421784400F06AFF53EC192BDB
:1057C00051EC100B05F0C8F953EC182B04F0F4FE63
:1057D00041EC100B51EC1A0B53EC102B04F0A0FF12
:1057E000CDE900019DED000B53EC102B9DED100B4E
:1057F00051EC100B05F0B0F99DED101B53EC112B83
:1058000004F0DAFED2E09DED100B51EC100B01F02C
:1058100067FA53EC182B05F09DFA9FED730BCDE959
:10582000000153EC102B9DED000B51EC100B05F01B
:1058300093F941EC190B6E480621B0EE490AF0EEDF
:10584000690A784400F024FF53EC192B51EC100B3B
:1058500005F082F941EC1B0B6648B0EE490AF0EE08
:10586000690A0421784400F013FF53EC192B51EC22
:10587000100B05F071F953EC182B04F09DFE41EC70
:105880001C0B51EC190B03F0DFFC41EC180B5A48D0
:105890009FED5BABA04222DC53EC1C2B51EC1B0BAD
:1058A00004F03EFFCDE900019DED000B51EC180B1B
:1058B00053EC102B05F050F953EC182B04F07CFE40
:1058C00053EC1A2B05F048F953EC1D2B05F01AFB8D
:1058D00053EC1E2B05F03EFA41EC100B5FE08DED12
:1058E000008B002000909DED000B51EC180B53EC49
:1058F000102B04F061FE9DED000B41EC1E0B53ECF0
:10590000102B51EC100B05F027F953EC192B05F077
:1059100021FA53EC1E2B04F003FF41EC190B53EC5E
:105920001C2B51EC1B0B04F0FBFE41EC1B0B53EC4E
:105930001A2B51EC190B05F00FF953EC1D2B05F048
:1059400009FA41EC190B53EC1A2B51EC180B05F02A
:1059500003F953EC1B2B05F0FFF853EC192B05F062
:10596000D1FA9DED000B41EC180B53EC1A2B51ECC6
:10597000100B05F0F1F89FED249B53EC192B05F06B
:10598000E9F941EC100B51EC180B53EC102B05F01E
:10599000B9FA53EC192B05F0DDF941EC100B002D91
:1059A0003FF7C5AE51EC100B04F0C8FD41EC100BF5
:1059B000BDE60000000000000000F03F0000000015
:1059C000075C143326A6913C182D4454FB21F93F63
:1059D0000000F07F0000E03F000000000000F03F0A
:1059E000F862000006630000000000000000E03FD5
:1059F0004A620000586200003333EF3F00000000AD
:105A00000000000000000040182D4454FB21E93F35
:105A100070B59B482DED020B2DED068B079D25F0F3
:105A20000044A04218DC9748844202DC0AD1069860
:105A300040B19DED060BBDEC068B02B0BDE8704099
:105A400000F03ABF002DCCBF9FED8F0B9FED900B68
:105A5000BDEC068B02B070BD8F48A04215DD8F48AB
:105A6000A042D8BF4FF0FF3458DD9DED060B51EC3E
:105A7000100BFFF755FC042808BF00F041FF9DED17
:105A8000060BBDEC068B02B070BD9DED060B51EC14
:105A9000100B01F025F9CDE9060181489FED828BBD
:105AA000A0423CDD8248A0421FDD00249FED82AB76
:105AB0009DED060B53EC1A2B51EC100B04F07CFD02
:105AC0009DED060B41EC190B53EC1A2B51EC100B0E
:105AD00005F042F853EC182B05F014FA53EC192B8F
