:020000040800F2
:100000004063002055150008196600089B5A000837
:1000100015660008691D0008217400080000000032
:10002000000000000000000000000000A90200081D
:10003000C321000800000000FD020008E36800087A
:100040006F1500086F1500086F1500086F15000880
:100050006F1500086F1500086F1500086F15000870
:100060006F1500086F1500086F1500086F15000860
:10007000692000086F150008792000086F15000836
:100080006F150008892000086F1500087D1D000805
:100090006D1D00086F1500086F1500086F1500082A
:1000A0006F1500086F1500086F1500086F15000820
:1000B0006F1500086F1500086F1500086F15000810
:1000C0006F1500086F1500086F1500086F15000800
:1000D0006F150008F97300086F1500080D7400080B
:1000E0006F1500086F1500086F1500086F150008E0
:1000F0006F1500086F1500086F1500086F150008D0
:100100006F1500086F1500086F1500086F150008BF
:100110006F1500086F150008596A00086F15000870
:100120006F15000899200008A92000086F15000825
:100130006F1500086F1500086F1500089D1D000859
:100140008D1D00086F1500086F1500086F15000859
:100150006F1500086F1500086F1500086F1500086F
:100160006F1500086F1500086F1500086F1500085F
:100170006F1500086F1500086F15000800000000DB
:100180006F1500086F150008296D00083D6D000807
:100190006F1500086F1500086F1500086F1500082F
:1001A00000000000000000006F15000800F002F8D9
:1001B00000F06AF80AA090E8000C82448344AAF197
:1001C0000107DA4501D100F05FF8AFF2090EBAE895
:1001D0000F0013F0010F18BFFB1A43F0010318477B
:1001E00078F4000098F400000A444FF0000C10F876
:1001F000013B13F0070408BF10F8014B1D1108BFA5
:1002000010F8015B641E05D010F8016B641E01F844
:10021000016BF9D113F0080F1EBF10F8014BAD1C94
:100220000C1B09D16D1E58BF01F801CBFAD505E0B2
:1002300014F8016B01F8016B6D1EF9D59142D6D30C
:10024000704700000023002400250026103A28BF34
:1002500078C1FBD8520728BF30C148BF0B60704738
:100260001FB50EF09CFE00F095FC0400002000215C
:100270000EF008F8401C6060002000210DF0ECFF3B
:10028000E0601FBD10B510BD00F0C3FE1146FFF7C2
:10029000E7FF0AF073FD01F013F903B4FFF7F2FF73
:1002A00003BC01F077F900002B4B19680868B0E82F
:1002B000F04F80F30988BFF36F8F4FF0000080F399
:1002C000118870470000000006480068006880F34D
:1002D000088862B661B6BFF34F8FBFF36F8F00DF40
:1002E00000BF00BF08ED00E0DFF80C00016841F43A
:1002F00070010160704700BF88ED00E0EFF30980F6
:10030000BFF36F8F144B1A681EF0100F08BF20ED5B
:10031000108A20E9F04F106008B44FF0500080F3CD
:100320001188BFF34F8FBFF36F8F0DF077FB4FF046
:10033000000080F3118808BC19680868B0E8F04F25
:100340001EF0100F08BFB0EC108A80F30988BFF3CD
:100350006F8F704700BF00BF08020020EFF30580D9
:10036000704700000FB400B58DB010A9099000913E
:100370000B904FF0FF300A9000200C900648784414
:100380000690064878446A4607900F9909A800F03D
:10039000A5FB0DB05DF814FB7B0700009307000080
:1003A0002DE9FF5F4FF000089946144646469169D3
:1003B000D2E901A7DDF838B001988847054659EA27
:1003C0000B0005D009E0A1690198761C8847054615
:1003D000216A284688470028F5D1681C03D05FEAC7
:1003E000CA7005D015E04FF0FF3004B0BDE8F09FB3
:1003F0002068011D2160D0F800800AE05FEACA7021
:1004000001D108F8015BA169761C01987F1E88471D
:100410000546002F1ADD681C18D0B9F1000F0DD069
:10042000E81705EBD060421120F01F0059F82210A8
:100430002A1A012090400142E0D107E0BBF1000FF1
:10044000DCD12846216A88470028D7D0E169019885
:100450008847BBF1000F07D1002E05DD5FEACA70A7
:1004600002D1002188F80010A068B84203DDBBF17A
:10047000000F03D017B16FF00100B6E73046B4E7C4
:10048000032A40F2308010F0030C00F0158011F8C0
:10049000013BBCF1020F624498BF11F801CB00F898
:1004A000013B38BF11F8013BA2F1040298BF00F8EC
:1004B00001CB38BF00F8013B11F0030300F02580A9
:1004C000083AC0F0088051F8043B083A51F804CBD0
:1004D000A0E80810F5E7121D5CBF51F8043B40F896
:1004E000043BAFF30080D20724BF11F8013B11F8A1
:1004F00001CB48BF11F8012B24BF00F8013B00F8E5
:1005000001CB48BF00F8012B704710B5203AC0F06E
:100510000B80B1E81850203AA0E81850B1E8185004
:10052000A0E81850BFF4F5AF5FEA027C24BFB1E841
:100530001850A0E8185044BF18C918C0BDE81040B2
:100540005FEA827C24BF51F8043B40F8043B08BFBB
:100550007047D20728BF31F8023B48BF11F8012B82
:1005600028BF20F8023B48BF00F8012B704702F07B
:10057000FF0343EA032242EA024200F002B84FF0CE
:1005800000020429C0F0128010F0030C00F0D882A1
:10059000CCF1040CBCF1020F18BF00F8012BA8BF6E
:1005A00020F8022BA1EB0C0100F0CABA5FEAC17C73
:1005B00024BF00F8012B00F8012B48BF00F8012BE5
:1005C000704710B500F0EAFA006810BD10B5044697
:1005D00000F0E4FA046010BD2DE9FF4F06468BB031
:1005E0000878FF2806D0491C2D2805D000244FF09C
:1005F000000908E000200CE00124F8E709EB89037A
:10060000491C00EB43090878FF28F7D114B1C9F160
:1006100000008146107800252C46AA4629462D2840
:1006200001D02B2804D1521C2D2813D00020824643
:100630008B461078FF280FD04FF0000C0A21521C77
:10064000A5FB017804FB018105FB0C11C5194BEBDF
:100650000104EEE70120EAE7002108464FF0000020
:10066000BAF1000F02D000EB80004008C0F38157C0
:10067000012F01DD4FF0FF370E9955EA040009EB19
:1006800001080BD04FF0020918F5FA7F16DA4FEA8D
:10069000CA70002F706008DD012007E04FEACA70C1
:1006A000C6E900B00FB0BDE8F08F0020306000F068
:1006B00075FAC0F800901821084616E0B8F5FA7FE0
:1006C00018DD002F02DAF748784401E0F648784454
:1006D000D0E90010C6E9001040EACA70706000F06E
:1006E0005DFAC0F80090142108460FB0BDE8F04F45
:1006F0000EF05FBC002108464FF00000B8F1000189
:10070000099002DAC7F1000200E03A4601DAC8F1C6
:10071000000106A800F00AFC06AB93E8070003AB53
:1007200083E8070044F23E005BEA0401009058466B
:1007300004D144F21E012C465D460091210C0904AF
:10074000014306D10099240444EA15442D041039CC
:10075000009104F07F41014306D10099240244EA4C
:1007600015642D020839009104F07041014306D14F
:100770000099240144EA15742D01091F009104F029
:100780004041014306D10099A40044EA9574AD00AC
:10079000891E009104F00041084304D100986D19AE
:1007A0006441401E00904FF001033A466846B8F19C
:1007B000000FCDE9014503A902DD01F09EF901E03A
:1007C00001F071F9BAF1000F04460D4601D084F032
:1007D0000044002108464FF00000099940F2FF77DD
:1007E000484010F00C0F07D124F00040284303D0FC
:1007F000C4F30A50B84212D100F0D0F9C0F800900A
:10080000C4F30A50B8420AD1A8487844D0E900108D
:10081000C6E9001004F000410843706042E7C6E9F1
:1008200000543FE72DE9FF4F1F464FF0000A4FF0FD
:10083000FF38454691B0D7E90146CDF83CA000F01D
:10084000A9F9C0680168405C1090B96912986D1CE4
:100850008847396A814688470028F6D1B9F1FF3FB9
:100860000AD0002E24F4D06411DDB9F12B0F08D08A
:10087000B9F12D0F0BD102E0404615B013E744F457
:100880008064B96912986D1C8847761E81466005A0
:1008900004A901D52D2000E02B20002E01F1010B31
:1008A0000DF130088DF810003FDDB9F1690F08D067
:1008B000B9F1490F05D0B9F16E0F02D0B9F14E0F61
:1008C0001CD13B4601A8009580E85002DDE91212D8
:1008D0006FF002000EF0D4FBC11CCED10EE0B9695E
:1008E00012986D1C884781461398761E44F4007454
:1008F00005600F98401C002E0F9016DDB9F1300FE7
:10090000EDD0B9F1780F02D0B9F1580F0DD10F9891
:1009100001280AD13B46CDE90054DDE91212001F3F
:1009200002960EF0ABFBC11CA7D1109989453ED1B0
:1009300044F0800406E01399681CAAF1010A44F40B
:1009400000740860B9696D1C1298761E88473028BB
:100950008146F0D02BE01099894505D1200603D4BB
:10096000761E44F0800418E0484607F0CFFD08B337
:10097000761E0DF123018B4544F4007408D2A9F1D1
:1009800030000BF8010B200607D5AAF1010003E0A7
:10099000200602D40AF101008246A00502D513996F
:1009A000681C0860B96912986D1C88478146002E42
:1009B000D1DC53E0002E51DDB9F1650F02D0B9F161
:1009C000450F4BD1A00549D5B9696D1C1298761E0B
:1009D00024F440748847002E81460CDD2B2804D077
:1009E000B9F12D0F07D144F48074B96912986D1CC8
:1009F0008847761E8146E00501D52D2100E02B2198
:100A000008F8011BCDF8008021E0761E0DF13901B8
:100A1000884544F400740CD2A9F1300010F0FF00B6
:100A200088F8000002D10099884509D908F1010829
:100A300006E0E00501D51E4801E042F20F70824653
:100A4000B96912986D1C8847814613980560002E7D
:100A500004DD484607F05AFD0028D6D1F9691298FE
:100A60008847FF2053468BF8000088F800000020DC
:100A70000A900B9004AA0CA90AA8FFF7ADFDA005E7
:100A800002D46FF00100F8E614F0240F12D0E00752
:100A90001CD13868DDE90A12031D3B600068C0E91B
:100AA000001213E0B4EF0000A6EF00006AEE0000B1
:100AB000F1D8FFFF0AA9684607F06AFCE00705D1F4
:100AC0003868009A011D3960006802602846D4E643
:100AD000026811441378016018467047D1600549D7
:100AE0007944516104497944116200211161114630
:100AF00000F062B8EDFFFFFFBB000000426842B1AA
:100B0000016811F8013B23B1521EC0E900121846DA
:100B100070470121C160881E704742685AB1C3689E
:100B2000016843B983688B4205D0491E521CC0E955
:100B30000012002070474FF0FF3070474FF0000266
:100B400000B5134694469646203922BFA0E80C50C3
:100B5000A0E80C50B1F12001BFF4F7AF090728BF9E
:100B6000A0E80C5048BF0CC05DF804EB890028BF1A
:100B700040F8042B08BF704748BF20F8022B11F043
:100B8000804F18BF00F8012B7047000000487047E5
:100B9000E04D002000487047004E0020004870479C
:100BA000E04D002010B5044600F058FA0068005DE2
:100BB00000F0010010BD00002DE9F34F4FF0000AD6
:100BC0000C4656468DB001200C9001F10C000B90A4
:100BD00062690B9801219047051E2DD0252D2CD040
:100BE000216A8847C0B162690B9801219047216A48
:100BF00088470028F7D16269411E0B98904700E0B2
:100C0000761CA1690D988847216A88470028F7D18A
:100C1000E1690D988847DBE7A1690D988847A842EC
:100C2000074601D1761CD3E7E1690D9888477F1C00
:100C300002D1BAF1000F6FD06BE162690B98002707
:100C40003D46394690472A2804D162690B98012114
:100C500090470125DFF8D08262690B980121904707
:100C6000A0F130010A290AD24745E5DC07EB8701EC
:100C700000EB4107303FDFD445F01005ECE7E90613
:100C800001D46FF000476C280AD04C2814D0682893
:100C900015D06A280DD074281CD07A281AD01DE0EF
:100CA00062690B98012190476C2802D045F0040539
:100CB00014E045F002050DE045F020050AE0626908
:100CC0000B9801219047682802D045F0080505E0FF
:100CD00045F4006562690B9801219047C4E901570A
:100CE00065283DD019DC58287AD00CDC452837D04F
:100CF00004DC252826D041289ED131E046282FD07B
:100D0000472899D12CE05B2877D0612828D0632828
:100D10007CD0642823D15AE0F6E06F2848D008DC64
:100D200066281DD067281BD0692821D06E2816D1CF
:100D300027E0702845D0732868D0752847D07828D8
:100D40000DD14DE0A1690D988847252805463FF44F
:100D500069AFE1690D9888476D1C3FF46AAFD8E030
:100D60000D9923466A466FF001000EF085F9C5E043
:100D700045F0400023464FF000026060A80736D4DB
:100D80003EE0E8077FF447AF2068011D216000685E
:100D9000290501D506701BE7290701D5068017E74D
:100DA000A90703D5F117C0E9006111E706600FE755
:100DB00045F0400023464FF008026060A80716D4B3
:100DC0001EE040F60E0125EA0100606016E045F0E5
:100DD000400023464FF00A026060A80707D40FE0E6
:100DE00045F040006060A80708D5234610220D9901
:100DF0006FF00100AFF3008080E007E0102223468F
:100E00000D996FF00100AFF3008077E04FF000091B
:100E100063284F46C8464B46CB4602D05B2806D0D7
:100E200038E0E80601D40120A060012732E06269C1
:100E3000D4F80CB00B98012190475E2807D14FF0F1
:100E4000010949466269D4F80CB00B9890472169B2
:100E500039B900210A4603AB43F82120491C08296F
:100E6000FADBD8B3216949B308F1010862690B982C
:100E7000012190475D28F4D1B9F1000F09D000207D
:100E800003A951F82020D24341F82020401C082813
:100E9000F7DB03AB2069002820794FEA40701ED0B1
:100EA0005B462246CDF80080CDE901970D990028D8
:100EB0006FF0010020DAAFF300801FE0C11703AA32
:100EC00000EBD1614B1121F01F0102EB8302411AAB
:100ED00013680120884003431360C7E719E00D99A8
:100EE000224600286FF00100009702DAAFF300807D
:100EF00004E0FFF755FA01E0AFF3008000280ADABA
:100F0000401C06D10C9820B14FF0FF300FB0BDE867
:100F1000F08F5046FAE7E90701D10AF1010A0644C9
:100F200000200C9054E60000CCCCCC0C2DE9F0470E
:100F3000814616468AB0354878440DC88DE80D00C4
:100F400032487844801C03AC0DC884E80D0041F69B
:100F50009B300844372190FBF1F290FBF1F5A5F1AD
:100F6000800501FB12041B3C02D56442012000E015
:100F70000020DFF898A080460027FA44AAF1BE0AB4
:100F80000EE0E0070AD03246684607EB470101232E
:100F90000AEB810100F09CFD8DE8070064107F1CC6
:100FA000002CEED1194F7F44AE3F19E0E80715D071
:100FB00007EB04100DF1180A90E80E008AE80E0005
:100FC000C068F04201D1981908903246012306A961
:100FD00003A800F07DFD03AB83E807006D10641CDF
:100FE000002DE3D14FF0010332466946B8F1000FFE
:100FF00003A802D000F042FD01E000F069FDC9E95C
:101000000001C9F808200AB0BDE8F087C8E6000072
:1010100070477546FFF7BAFDAE4605006946534670
:1010200020F00700854618B020B500F0A1FABDE811
:1010300020404FF000064FF000074FF000084FF03F
:10104000000B21F00701AC46ACE8C009ACE8C009D0
:10105000ACE8C009ACE8C0098D46704710B5FFF791
:1010600099FD001D10BD00BF1DD200002DE9FF4FEE
:101070001F464FF03C0987B04FF00042DDE91410E5
:1010800001F10108DDF858A002EA40500390002069
:1010900005908346054604460490B969461E0898A3
:1010A0008847AAF1010A0290BAF1000F3BDD0298CD
:1010B0002E2815D0102100F086FA00282EDB4FF0E4
:1010C000010B0599014317D0B9F1000F0BDB4A461C
:1010D000C11700F065FA05430C43A9F1040905E0C6
:1010E000012004900BE008B145F0010501200590B6
:1010F000049820B9361D02E0049800B1361FB96982
:10110000089808F101088847BBF1000FAAF1010A0D
:101110000290C9D00999C1F80080C5E702987028EB
:1011200008D0502806D0F96908988847BBF1000F0D
:1011300014D04FE0002002900120BBF1000F04907A
:1011400009D0B969089808F101088847AAF101098E
:10115000B9F1000F07DCF969089888476FF00100C2
:101160000BB0BDE8F08F2B2804D02D280CD14FF008
:10117000FF300490B969089808F101088847A9F17F
:101180000109B9F1000FE6DD411CE4D00A2100F0AD
:101190001AFA0028DFDB029908F1010801EB81014E
:1011A00000EB41000290B969089888470A2100F0D5
:1011B0000AFA099AA9F10109B9F1000FC2F80080F1
:1011C00001DD0028E7DAF969089888470499029850
:1011D00000FB016655EA040004D004F04041090018
:1011E00002D006E0039898E0A40044EA9574AD00AC
:1011F000B61E04F00041080002D16D196441761E4C
:10120000159810F0240F03D04FF00B095C4803E051
:101210004FF028096FF07D008246564507DAAAEBA9
:1012200006018944B9F1410F01DD4FF04109012068
:101230000021A9F1010200F0B3F9024628400B4653
:101240002140084301D0012100E00021501E0291FD
:1012500043F1FF3128402140084301D0012000E044
:1012600000200299834651EA0B014FD00021084625
:101270004FF00000039900F4400039B100EB80000A
:101280004FF4400100EBD07001EA600080150128A6
:1012900002DD4FF0FF3000E013D0401C36D0029842
:1012A00060B3BBF1000F0CD14A460120002100F0D1
:1012B00077F928402140084301D0012000E00020B8
:1012C000E0B101204A46002100F06AF903464019C6
:1012D0000A4661412D1A8C4111D3B9F1400F09DD45
:1012E000159810F0240F02D0AAF1340603E0AAF1F9
:1012F000170600E0761C00254FF0004406E05B1E58
:1013000042F1FF3220EA030521EA0204CAF101009A
:10131000B04206DA1B490398084301900020009070
:101320000EE0039AC4F3D321E80A0A43164940EABF
:1013300044500A433146CDE90002684607F0DCF824
:10134000159810F0240F0BD01598C00715D13868E8
:10135000DDE90012031D3B600068C0E900120CE0EB
:1013600002A8694607F014F81598C00705D1386837
:10137000029A011D3960006802604046F0E60000F4
:1013800002FCFFFF0000F07F0000F03F2DE9FF4F5F
:1013900092461D4685B04FF00041DDE9124BDDE974
:1013A00014727F1E01EA4B50414940F0FF4940EA68
:1013B0000108002122F020004928049102D04E2883
:1013C00028D04CE03BA0012607C88DE80700A9699A
:1013D0000698641C88477F1E014606D41DF8060047
:1013E00018B121F0200181420BD0E96906988847A5
:1013F000032E34D0082E32D06FF0010009B0BDE8C2
:10140000F08F761C032E01D0082EE0D1601CCAF8A4
:101410000000DCE7A9690698641C88477F1E2AD46F
:1014200020F02000412826D1A9690698641C88472D
:101430007F1E20D420F020004E281CD1A9690698D8
:10144000641C88477F1E48F4002849F48009CAF8C4
:10145000004001D4282806D0E969069888475FEA49
:10146000CB7012D022E0A9690698641C88477F1EC1
:1014700001D4002803DAE96906988847BCE72928DF
:10148000F1D1641CCAF80040E9E71BF0240F07D033
:1014900028680499031D2B600068C0E9001805E066
:1014A0002868021D2A600068C0F800902046A5E761
:1014B0000000F07F494E46494E4954590000000053
:1014C00010B50446AFF300802046BDE81040FEF79B
:1014D000E4BE00004FF0013C50F8042B51F8043BEF
:1014E0009A4221D1A2EB0C03934313EACC1317D1F8
:1014F00050F8042B51F8043B9A4215D1A2EB0C038F
:10150000934313EACC130BD150F8042B51F8043B4E
:101510009A4209D1A2EB0C03934313EACC13DBD01C
:101520004FF00000704700BFD01A01BAB1FA81F144
:1015300001F0180122FA01F0CB40C1F12001DBB229
:10154000C0B2C01A2CFA01F3D11A914311EAC311A7
:10155000E6D170470948804709480047FEE7FEE7A3
:10156000FEE7FEE7FEE7FEE7FEE7FEE7FEE7FEE753
:1015700004480549054A064B70470000F569000814
:10158000AD010008404E0020406300204053002081
:101590004053002001491820ABBEFEE726000200A0
:1015A000B2F120030AD5C2F1200301FA02F120FAB8
:1015B00003F300FA02F041EA0301704700FA03F175
:1015C0004FF0000070473A2800D2303820F0200257
:1015D000412A01D3A2F13700884201D34FF0FF30F6
:1015E000704720F07F4C80EA030023F07F47ACEB8C
:1015F000070303F57C5300F0004003F1FF032DE9DE
:1016000080494FEA154B09B44FEA144325EA0B4EC3
:1016100024EA03480FF2042606EB132749083E7814
:101620005FEA320203FB0667C7F5000707FB06F611
:101630004FEA54374FEAD64606F1020607FB066C1E
:10164000CCF1005C4FEA1C472CEA074C07FB06F480
:101650000CFB06F504EB15464FEA961634BF002046
:101660004FF000404FEAD13706FB07FC4FEA1C4C15
:101670000CFB0BF7D21B03FB0CF761EB07010CFB18
:101680000EF7B0EB074072EB17420CFB08F734BFC4
:10169000A2EB0742B2EB074261EB17414FEA0C4461
:1016A0004FEA910706FB07FC4FEA1C4C0CFB0BF7BB
:1016B000B0EBC74072EB573203FB0CF734BFA2EB21
:1016C000C742B2EBC74261EB57310CFB0EF7B0EBF0
:1016D000C70072EB57720CFB08F734BFA2EBC702CE
:1016E000B2EBC70261EB5771039F4FEA816141EA98
:1016F000921104EBCC044FEAD1374FEA826206FB29
:1017000007FC42EA90124FEA80604FEA1C4C0CFB47
:101710000BF7D21B03FB0CF761EB07010CFB0EF779
:10172000B0EB074072EB17420CFB08F734BFA2EB9B
:101730000742B2EB074261EB17414FEA8C554FEA83
:10174000910704EB9C2406FB07FC4FEA1C4C0CFBA6
:101750000BF7B0EBC74072EB573203FB0CF734BF0B
:10176000A2EBC742B2EBC74261EB57310CFB0EF75D
:10177000B0EBC70072EB57720CFB08F734BFA2EB5B
:10178000C702B2EBC70261EB577115EB4C254FEA6C
:10179000816141EA92114FEA82624FEAD13742EA0F
:1017A000901206FB07FC44F100044FEA80604FEA08
:1017B0001C4C0CFB0BF7D21B03FB0CF761EB070176
:1017C0000CFB0EF7B0EB074072EB17420CFB08F76F
:1017D00034BFA2EB0742B2EB074261EB174115EBB6
:1017E0001C154FEA813141EA92414FEA823242EAC6
:1017F00090424FEA80304FEA0C7644F1000448EA08
:1018000003434EEA0B484FF0000EB2EB080C71EBAD
:10181000030724BF624639464EEB0E0E4FF0000B15
:101820000018524149414BEB0B0BB2EB080C71EB2A
:1018300003077BF1000B24BF624639464EEB0E0EC8
:101840004FF0000B0018524149414BEB0B0BB2EB30
:10185000080C71EB03077BF1000B24BF624639468D
:101860004EEB0E0E51EA020718BF46F0010616EBCA
:101870000E7655F1000254F1000103D5BDE889014F
:10188000BDE80088BDE88901BDE80048B6195241AD
:1018900041EB0101A3F10103704780807F7E7D7CD5
:1018A0007B7A7978777676757473727171706F6EF2
:1018B0006E6D6C6C6B6A6A6968686766666564649D
:1018C000636362616160605F5F5E5E5D5D5C5C5B27
:1018D0005B5A5A5959585857575656555555545496
:1018E000535352525251515050504F4F4F4E4E4DF4
:1018F0004D4D4C4C4C4B4B4B4A4A4A494949484840
:10190000484747474746464645454544444444437F
:1019100043434342424242414141000046EA0646B7
:10192000A3F570534FEA164646EA42564FEAD222D2
:1019300042EA415210B54FEAD121A3F1010300F070
:101940002FF820F0004000F1020C00F0004701EBFE
:1019500000501146BCF5006F40EA070000D210BDF0
:10196000BAF1000F0AD01CB503B44FF004004FF0D9
:1019700004014FF000000FBCBDE810404FF0000123
:10198000BBF1010FB9BF04484FF0FF3103480021FC
:1019900040EA070010BD00BFFFFFEF7F0000F07FAF
:1019A000002B9C4630D477002BD01CB54FEA37076C
:1019B00003B44FF010004FF01001BAF1000F06D041
:1019C000BCF1000FDCBF40F0080040F008014FF010
:1019D00000000FBCBDE810400BF1010BBBF1010F83
:1019E00008BF5FEA170722BF12F1010211F10101DE
:1019F0004FF0004143F1000300F0004043EA0000D3
:101A00007047F9D35708D0E746EA064613F1400F6E
:101A10004FEA16461FDD13F1200FDFBF16430A46BB
:101A2000002120335B42BED0C3F1200746EA0646C0
:101A300002FA07F74FEA164646EA0706C3F12007FF
:101A400022FA03F201FA07F721FA03F14FF000033B
:101A500042EA0702A7E746EA020646EA06464FEAD6
:101A6000164646EA0106BCBF46EA0646360C4FF06B
:101A700000034FF000024FF0000194E72DE9804C85
:101A80009A46934670B491E8380007C831EA400C92
:101A900048BF34EA430C03D5FFF7A3FDFFF780FFEF
:101AA000F0BCBDE8008C2DE9804C9A46934670B49A
:101AB00091E8380007C831EA400C48BF34EA430CCB
:101AC00003D5FFF78EFDFFF729FFF0BCBDE8008CC2
:101AD0002DE9804C9A46934670B491E8380007C8C7
:101AE00010F0804F08BF13F0804F03D100F01AF8B8
:101AF000FFF756FFF0BCBDE8008C2DE9804C9A46FC
:101B0000934670B491E8380007C810F0804F08BFC2
:101B100013F0804F03D100F005F8FFF7FFFEF0BC93
:101B2000BDE8008C20F07F4780EA030023F07F4C63
:101B300007EB0C03A3F57C5300F00040A3F1FE0378
:101B400092F0000F00F0B38095F0000F00F0778066
:101B50002DE901494FEA11404FEA144621EA0048B5
:101B600000FB06FC24EA064708FB06F607FB08F81C
:101B700000FB07F718EB06484CEB164C4FEA124BEC
:101B800018EB07484FEA15464CEB174022EA0B4E7C
:101B90000BFB06FC25EA06470EFB06F607FB0EFECE
:101BA0000BFB07F71EEB064E4CEB164C4FF00006F6
:101BB0001EEB074E4CEB174B18EB0B0840F10000E7
:101BC00018EB0E0B58EB000840F100008F1A4FF095
:101BD00000013CBFC943661B14BFB5EB040C0021D8
:101BE0003CBFC943F61B4FEA17444EEA8E0E27EA64
:101BF00004454FEA1C4704FB07622CEA074C05FB2F
:101C000007F70CFB05F604FB0CFC16EB074642EB52
:101C1000174216EB0C4642EB1C421BEB060658EB38
:101C20000202414146EA9E0601D5BDE80189B61986
:101C3000524141EB0101A3F10103BDE801894FEAE3
:101C400014454FEA114724EA054621EA074C05FBF3
:101C500007F406FB07F70CFB06F105FB0CFC11EB88
:101C6000074144EB17444FEA124711EB0C4144EB98
:101C70001C4422EA074C05FB07F206FB07F70CFBA6
:101C800006F605FB0CFC16EB074642EB174216EB7B
:101C90000C4642EB1C456A1854F1000148BF7047DE
:101CA000B619524141EB0101A3F10103704795F0D0
:101CB000000F37D04FEA11424FEA144721EA02469B
:101CC00024EA074C02FB07F106FB07F70CFB06F4BE
:101CD00002FB0CFC14EB074441EB17414FEA15479C
:101CE00014EB0C4441EB1C4125EA074C02FB07F5C1
:101CF00006FB07F70CFB06F602FB0CFC16EB07468F
:101D000045EB174516EB0C4645EB1C42121951F1F9
:101D1000000148BF7047B619524141EB0101A3F1E0
:101D2000010370474FEA14454FEA114724EA05467C
:101D300021EA074C05FB07F106FB07F70CFB06F24F
:101D40004FF0000605FB0CFC12EB074241EB17417C
:101D500012EB0C4251EB1C4148BF7047921841EB0B
:101D60000101A3F10103704700BFFEE710B502486F
:101D700000F03AFD10BD0000E809002010B502484F
:101D800000F032FD10BD0000E809002010B5024847
:101D900000F02AFD10BD00002C0A002010B50248FA
:101DA00000F022FD10BD00002C0A00202DE9F041BA
:101DB00004460D46002700260DB9666B00E0A66BB1
:101DC000206800F5D87000EB0510006800F00400F2
:101DD000B060B06858B9206800F5D87000EB051005
:101DE000006840F2FF7101EA505030600AE020685C
:101DF00000F5D87000EB051000686FF0604101EA53
:101E0000D0007060206800F5D87000EB0510006805
:101E100000F00200F060206800F5D87000EB0510BB
:101E2000406800F00F0030613562206800F5D8701E
:101E300000EB05104068C0F30720F061206800F552
:101E4000D87000EB051080683075206800F5D870F8
:101E500000EB05108068010A7175206800F5D870E4
:101E600000EB05108068010CB175206800F5D87092
:101E700000EB05108068000EF075206800F5D87042
:101E800000EB0510C0683076206800F5D87000EBD4
:101E90000510C068010A7176206800F5D87000EB63
:101EA0000510C068010CB176206800F5D87000EB11
:101EB0000510C068000EF0764DB920202168C8607A
:101EC0002068406920F00A002168486108E020206D
:101ED000216808612068406920F05000216848614D
:101EE00094F83C70222F01D0322F05D12068406930
:101EF00020F40F4021684861CDB994F83C00422895
:101F000004D0622806D072280CD107E0122084F891
:101F10003C000BE0322084F83C0007E0522084F8BB
:101F20003C0003E0012084F83C0000BF19E094F875
:101F30003C00522804D0622806D072280CD107E059
:101F4000122084F83C000BE0222084F83C0007E0DB
:101F5000422084F83C0003E0012084F83C0000BFEC
:101F600000BF204600F068FF0020BDE8F08110B5FA
:101F700004462068406920F001002168486194F817
:101F80003C00122805D12068406920F40F402168E8
:101F9000486194F83C00422804D0522806D07228A8
:101FA0000CD107E0222084F83C000BE0322084F8BA
:101FB0003C0007E0622084F83C0003E0012084F844
:101FC0003C0000BF00BF204601F0C6F8002010BD55
:101FD0002DE9F0470C4608AD95E8E010DDF83080BB
:101FE000002106E014F80190C1F1020A00F80A90FD
:101FF000491C032904DA14F80190B9F1000FF1D15A
:1020000090F8039029F0380909F1100980F803903D
:1020100090F8039062F3020980F80390B0F80390FF
:1020200063F38919A0F8039090F8049065F385098B
:1020300080F80490B0F8079066F30909A0F80790BB
:10204000B0F8089067F38C09A0F80890B0F80990F0
:102050006CF34F19A0F80990B0F80B9068F30909D8
:10206000A0F80B90BDE8F08710B5024801F08AF89F
:1020700010BD0000D00C002010B5024801F082F81D
:1020800010BD0000B00B002010B5024801F07AF836
:1020900010BD0000100C002010B5024801F072F8CD
:1020A00010BD0000300D002010B5024801F06AF8A4
:1020B00010BD0000700C002001460878103818236D
:1020C000B0FBF3F20848805CC865032A05D90868AC
:1020D0006FF30900001D886503E008686FF30900CD
:1020E0008865886D704700001AF4000801460020DA
:1020F0008A6A8B69CBB932B1012A0DD0022A03D08A
:10210000032A10D10EE000BFCB6A03F08073B3F155
:10211000807F00D1012007E0CB6AB3F1C07F00D1FE
:10212000012001E000E000BF34E08B69B3F5005FFF
:102130001AD132B1012A07D0022A03D0032A11D1C1
:102140000AE000BF01200EE0CB6A03F08073B3F118
:10215000807F00D1012006E0CB6AB3F1C07F00D1BF
:10216000012000E000BF15E032B1012A05D0022AAB
:1021700004D0032A0CD103E000BF00BF012008E017
:10218000CB6A03F08073B3F1807F00D1012000E0BF
:1021900000BF00BF704730B50468246824F4802471
:1021A00005682C60046863608468402C04D104686E
:1021B000A2600468E16003E00468A1600468E26072
:1021C00030BD704710B5002201B909E0012901D1E5
:1021D0000A0205E0022901D10A0201E04FF440722F
:1021E0000B2800D9001D114B1B6823F440730F4CC2
:1021F000236023461B681343236023461B6823F098
:10220000F803236023461B68F82494FAA4F4B4FA74
:1022100084F400FA04F444F002042343034C2360E2
:1022200023461B6843F48033236010BD103C0240FA
:102230001C48006800F40070B0B11A48006820F42F
:1022400000701849086000BF0846006840F400604C
:1022500008600846006820F40060086000BF084677
:10226000006840F4007008600E48006800F4806068
:10227000B0B10C48006820F480600A49086000BFD3
:102280000846006840F4805008600846006820F462
:102290008050086000BF0846006840F48060086015
:1022A00070470000003C0240134A126822F440725A
:1022B000114B1A60032906D11A461268DB131A4320
:1022C0000D4B1A600EE0012906D10B4A126842F04C
:1022D0000402094B1A6005E0074A126842F4004202
:1022E000054B1A60044A12684FF4803343EA002316
:1022F0001A43014B1A607047103C0240074A1268AB
:1023000022F44072054B1A601A4612681A601A4687
:10231000126842F001021A6001707047103C0240DE
:1023200010B50949096821F44071074C2160214624
:10233000096841F4407121602146096841F00101BA
:1023400021600260436010BD103C0240084A1268E0
:1023500022F44072064B1A601A46126842F48072E8
:102360001A601A46126842F001021A600180704732
:10237000103C0240084A126822F44072064B1A6070
:102380001A46126842F400721A601A46126842F045
:1023900001021A6001607047103C02402A48006840
:1023A00000F0100040B12948C06940F010002749F2
:1023B000C8611020244908602348006800F020000C
:1023C00040B12248C06940F008002049C86120207F
:1023D0001D4908601C48006800F0400040B11B48DF
:1023E000C06940F004001949C861402016490860DE
:1023F0001548006800F0800040B11448C06940F002
:1024000002001249C86180200F4908600E48006828
:1024100000F4807048B10D48C06940F001000B49DC
:10242000C8614FF48070084908600748006800F0F0
:10243000020040B10548C06940F020000349C8616E
:1024400002200149086070470C3C0240F00E002059
:1024500070B50446002500201449C86101F046FA11
:10246000054609E0601C38B124B101F03FFA401B79
:10247000A04201D9032070BD0D48006800F48030EF
:102480000028EFD10A48006800F0010010B10120D7
:10249000074908600648006800F4F97018B1FFF7B2
:1024A0007DFF0120E7E70020E5E70000F00E0020B7
:1024B0000C3C0240014600205C4A914203D2B1F13B
:1024C000006F00D3B0E05A4A914204D2574A914279
:1024D00001D30120A8E0574A914204D2544A9142C4
:1024E00001D30220A0E0544A914204D2514A9142C1
:1024F00001D3032098E0514A914204D24E4A9142BE
:1025000001D3042090E04E4A914204D24B4A9142BA
:1025100001D3052088E04B4A914204D2484A9142B7
:1025200001D3062080E0484A914204D2454A9142B4
:1025300001D3072078E0454A914204D2424A9142B1
:1025400001D3082070E0424A914204D23F4A9142AE
:1025500001D3092068E03F4A914204D23C4A9142AB
:1025600001D30A2060E0B1F1016F04D2394A9142EF
:1025700001D30B2058E0384A914204D2B1F1016FE7
:1025800001D30C2050E0354A914204D2324A9142A4
:1025900001D30D2048E0324A914204D22F4A9142A1
:1025A00001D30E2040E02F4A914204D22C4A91429E
:1025B00001D30F2038E02C4A914204D2294A91429B
:1025C00001D3102030E0294A914204D2264A914298
:1025D00001D3112028E0264A914204D2234A914295
:1025E00001D3122020E0234A914204D2204A914292
:1025F00001D3132018E0204A914204D21D4A91428F
:1026000001D3142010E01D4A914204D21A4A91428B
:1026100001D3152008E01A4A914204D2174A914288
:1026200001D3162000E0172070470000004000088A
:102630000080000800C00008000001080000020837
:1026400000000408000006080000080800000A084E
:1026500000000C0800000E08004010080080100860
:1026600000C0100800001108000012080000140843
:10267000000016080000180800001A0800001C08D6
:1026800000001E0830B5034613B94FF6FF7030BD89
:1026900009E013F8014B82EA0400C0B2054D35F899
:1026A000100080EA2222081EA1F10101F1D110469A
:1026B000EDE700001AF2000830B5034605E013F814
:1026C000010B80EA02040448025D081EA1F1010129
:1026D000F5D1104630BD000019F1000870B5044670
:1026E0000A460023157D012000FA05F33C4901F557
:1026F0000071086840F001000860086820F47C5010
:1027000008600868556A40EA05200860C86998436F
:10271000C861A1F50071D069C8B9D1F80C0298431D
:10272000C1F80C02908880B2958940EA054501F510
:102730001070566940F83650108880B2158940EA0A
:10274000054501F51070566900EBC6004560D0697B
:10275000012819D1D1F80C021843C1F80C02908855
:1027600080B2158840EA054501F51070566940F8B9
:102770003650908980B2158940EA054501F5107000
:10278000566900EBC6004560906928B9D1F804028B
:102790009843C1F8040204E0D1F804021843C1F8D8
:1027A0000402106920B9D1F814029843C1F8140248
:1027B0001069012804D1D1F814021843C1F8140299
:1027C000106A012804D1D1F81C021843C1F81C0278
:1027D000D1F8000220F00100C1F80002002070BD15
:1027E00000640040704700002DE9F04104460025D8
:1027F00000260027A8462068C068C0F3001520689E
:102800004069C0F3C0062DB126B148F4007810200D
:102810002168C86020680069C0F30015206840691D
:10282000C0F380162DB126B148F4806810202168CD
:1028300008612068406900F0010000283BD0206852
:1028400080687A490840884201D1012000E00020D8
:1028500005462068806876490840884201D10120F9
:1028600000E00020064620688068724908408842DF
:1028700001D1012000E0002007460DB906B9D7B10B
:1028800020688068C0F3400520688068C0F3402657
:1028900020688068C0F340470DB906B91FB12046D3
:1028A000FFF765FB01E048F4006820688068624932
:1028B0000843216888602068C06800F0030520682C
:1028C0004069C0F3400625B11EB100212046FFF744
:1028D0006DFA2068006900F0030520684069C0F3C4
:1028E000001625B11EB101212046FFF75FFA206CCA
:1028F00040EA080020642068806900F00105206833
:102900004069C0F3002620684069C0F3C0372DB18C
:1029100026B11FB1206C40F001002064206880695E
:10292000C0F3400520684069C0F340262068406934
:10293000C0F3C0372DB126B11FB1206C40F00200AA
:10294000206420688069C0F3800520684069C0F376
:10295000802620684069C0F3C0372DB126B11FB171
:10296000206C40F0040020642068806900F0700052
:1029700008B9012000E00020054620684069C0F346
:10298000C02620684069C0F3C03795BB8EB387B3BB
:102990002068806900F07005402D1BD006DC102DEA
:1029A00009D0202D0CD0302D24D10EE0502D16D082
:1029B000602D1FD118E0206C40F0080020641AE060
:1029C000206C40F01000206415E0206C40F02000E6
:1029D000206410E0206C40F0400020640BE0206C8C
:1029E00040F08000206406E0206C40F48070206499
:1029F00001E007E000BF00BF2068806920F07000A0
:102A000021688861206C78B1042021684860012029
:102A100084F83C002068406948F65B71884321686F
:102A200048612046FFF7DEFEBDE8F08103000004A8
:102A300000030008000003101905010070B50446EA
:102A4000002600250CB9012070BD94F83C0028B97F
:102A5000002084F83D00204600F0CEF8022084F8E3
:102A60003C002068006820F00200216808602068AF
:102A7000006840F001002168086000F037FF05465B
:102A80000EE000F033FF401B0A2809D9032084F828
:102A90003C0000BF002084F83D0000BF0320D3E7C6
:102AA0002068406800F001000028EAD020684068F3
:102AB00000F00100002875D0A069012806D1206827
:102AC000006840F080002168086005E02068006828
:102AD00020F0800021680860E069012806D12068A4
:102AE000006840F040002168086005E02068006848
:102AF00020F0400021680860206A012806D1206883
:102B0000006840F020002168086005E02068006847
:102B100020F0200021680860606A012806D1206842
:102B2000006840F010002168086005E02068006837
:102B300020F0100021680860A06A012806D12068F2
:102B4000006840F008002168086005E0206800681F
:102B500020F0080021680860E06A012806D120689A
:102B6000006840F004002168086005E02068006803
:102B700020F0040021680860D4E9020108432169BB
:102B80000843616908436168491E08432168C861B8
:102B90002068006820F001002168086000F0A6FEAF
:102BA00005460FE01AE000F0A1FE401B0A2809D9F3
:102BB000032084F83C0000BF002084F83D0000BFE3
:102BC000032041E72068406800F001000028EAD1B6
:102BD0002068406800F0010000B90126012E06D1EE
:102BE00000202064012084F83C0000202CE7042011
:102BF00084F83C00012027E710B586B0044645491B
:102C00002068884237D144480068401C4249086027
:102C10000846006801280FD100BF002000903F48FF
:102C2000006840F000703D4908600846006800F008
:102C30000070009000BF00BF0320019002200290AE
:102C400000200390032004900920059001A9344836
:102C500000F038FD00220521132000F0C7FE1320EC
:102C600000F0B7FE00220521142000F0BFFE142062
:102C700000F0AFFE4BE02B492068884247D100BFEF
:102C8000002000902548006840F0806023490860DB
:102C90000846006800F08060009000BF00BF1E483A
:102CA0000068401C1C4908600846006801280FD1D4
:102CB00000BF002000901948006840F000701749DC
:102CC00008600846006800F00070009000BF00BF78
:102CD0004FF4405001900220029000200390032006
:102CE00004900920059001A90F4800F0EBFC002298
:102CF00006213F2000F07AFE3F2000F06AFE00220D
:102D00000621402000F072FE402000F062FE06B076
:102D100010BD0000006400403C010020403802402B
:102D2000000C02400068004000040240024689B9DD
:102D300092F83C0022280BD092F83C00422807D0A1
:102D400092F83C00622803D092F83C00722801D12E
:102D500002207047012911D192F83C0032280BD093
:102D600092F83C00522807D092F83C00622803D029
:102D700092F83C00722801D10220EAE700BF92F8E5
:102D80003D00012801D10220E3E7012082F83D0047
:102D900000BFC9B992F83C00122804D0322806D0EE
:102DA00052280CD107E0422082F83C000BE0622060
:102DB00082F83C0007E0722082F83C0003E0222009
:102DC00082F83C0000BF19E092F83C00122804D0C1
:102DD000222806D042280CD107E0522082F83C007D
:102DE0000BE0622082F83C0007E0722082F83C0091
:102DF00003E0322082F83C0000BF00BF00201064D6
:102E00001068406948F6017318431368586100BFA1
:102E1000002082F83D0000BF31B91068406940F0E1
:102E20000A001368586105E01068406940F05000DE
:102E30001368586100208CE710B504461548844299
:102E40000AD115480068A0B1636B03F1140118683A
:102E5000114B1A6890470CE01048844209D10E4883
:102E6000406830B1636B03F1140118680A4B5A686B
:102E7000904708480068406940F002000549096829
:102E8000486106480068406940F00200034909684B
:102E9000486110BDE80900205C0100202C0A0020D8
:102EA0002DE9F04104460E4604250027206880687D
:102EB00000F08060B0F1806F0DD02068806800F075
:102EC0000060B0F1006F06D02068806800F080508C
:102ED000B0F1805F7DD100BF94F83D00012802D1A0
:102EE0000220BDE8F081012084F83D0000BF94F885
:102EF0003C00222804D0322806D062280CD107E0FA
:102F0000422084F83C000BE0522084F83C0007E0AB
:102F1000722084F83C0003E0122084F83C0000BFDB
:102F200000BF2068806800F08060B0F1806F01D140
:102F3000002509E02068806800F00060B0F1006FB3
:102F400001D1012500E00225206800F5C07000EBEA
:102F50000510006800F00101206800F5C07000EB6A
:102F600005100160206B806898B9206800F5C0707A
:102F700000EB05100068216BC968226B128841EADA
:102F800042510843216801F5C07101EB0511086049
:102F900015E0206800F5C07000EB05100068216B9B
:102FA0008968226B526841EAC201226BD2681143E0
:102FB0000143206800F5C07000EB05100160206B34
:102FC000007C00F00F00216B0861206800F5C070E4
:102FD00000E0B6E000EB0510406820F00F0120682B
:102FE00000F5C07000EB05104160206800F5C0706E
:102FF00000EB05104068216B09690843216801F561
:10300000C07101EB05114860206BC07D0106206B8B
:10301000807D41EA0041206B407D41EA0020216B28
:10302000097D0843216801F5C07101EB0511886035
:10303000206BC07E0106206B807E41EA0041206B40
:10304000407E41EA0021206B007E0143206800F5AC
:10305000C07000EB0510C160206800F5C07000EB87
:103060000510006840F00101206800F5C07000EB19
:103070000510016000F03AFC074620E0701CF0B13A
:1030800026B100F033FCC01BB04218D9032084F8ED
:103090003C001DB980202168886009E0012D03D122
:1030A000E8032168886003E04FF40000216888602D
:1030B00000BF002084F83D0000BF032011E74DB998
:1030C0002068806821490840884201D1012016E02B
:1030D000002014E0012D09D1206880681C490840B7
:1030E000884201D101200AE0002008E020688068C1
:1030F00018490840884201D1012000E00020002842
:10310000BCD094F83C00422804D0522806D0722843
:103110000CD107E0222084F83C000BE0322084F838
:103120003C0007E0622084F83C0003E0012084F8C2
:103130003C0000BF00BF00BF002084F83D0000BF7E
:10314000CFE6042084F83C000120CAE60300000416
:1031500000030008000003107047014691F8350095
:10316000022803D08020486501207047052081F89F
:1031700035000868006820F001000A68106000202F
:10318000F3E70000F8B50446002000908D48006881
:103190004FF41651B0FBF1F7A56D2E6894F85C1052
:1031A00008208840304098B12068006800F0040092
:1031B00070B12068006820F004002168086094F86D
:1031C0005C1008208840A860606D40F001006065D8
:1031D00094F85C107C488840304068B120684069B1
:1031E00000F0800040B194F85C1077488840A860F7
:1031F000606D40F00200606594F85C107248C01C7D
:103200008840304070B12068006800F0020048B18A
:1032100094F85C106C48C01C8840A860606D40F059
:103220000400606594F85C1010208840304078B34A
:103230002068006800F0080050B394F85C1010207B
:103240008840A8602068006800F4802080B1206871
:10325000006800F4002028B9206CC8B12046216C19
:10326000884715E0A06C98B12046A16C88470FE014
:103270002068006800F4807028B92068006820F099
:10328000080021680860206C10B12046216C884736
:1032900094F85C10202088403040002865D02068D9
:1032A000006800F0100000285FD094F85C10202027
:1032B0008840A86094F83500052828D12068006867
:1032C00020F01600216808602068406920F0800026
:1032D00021684861206C08B9A06C28B1206800689A
:1032E00020F008002168086094F85C103F208840B6
:1032F000A86000BF002084F8340000BF012084F8DB
:103300003500206D10B12046216D8847F8BD20683A
:10331000006800F4802080B12068006800F400207C
:1033200028B9606C10B12046616C88471DE0E06BE5
:10333000D8B12046E16B884717E02068006800F4A8
:10334000807068B92068006820F01000216808606B
:1033500000BF002084F8340000BF012084F835004D
:10336000E06B10B12046E16B8847606D38B3606D4B
:1033700000F00100F0B1052084F8350020680068F5
:1033800020F001002168086000BF0098401C0090F8
:10339000B84200D905E02068006800F0010000286C
:1033A000F3D100BF00BF002084F8340000BF01202B
:1033B00084F83500E06C10B12046E16C884700BF0E
:1033C000A4E70000EC010020010080002DE9F0419D
:1033D0000446002500F08AFA074614B90120BDE82A
:1033E000F081606A00B100BF00BF002084F83400A3
:1033F00000BF022084F835002068006820F001003A
:10340000216808600AE000F071FAC01B052805D9A0
:1034100020206065032084F83500E0E7206800681C
:1034200000F001000028EED1206805682148054021
:10343000D4E901010843E16808432169084361694F
:103440000843A1690843E1690843216A0843054329
:10345000606A042803D1D4E90B01084305432068BE
:1034600005602068456925F00705606A0543606AC4
:1034700004280DD1A06A0543E06A48B12046FEF752
:1034800035FE28B140206065012084F83500A6E7AC
:10349000206845612046FEF70FFE064694F85C1052
:1034A0003F208840B06000206065012084F835002E
:1034B000002094E73F8010F02DE9F04104460D46CE
:1034C00016461F464FF0000800BF94F8340001284C
:1034D00002D10220BDE8F081012084F8340000BF51
:1034E00094F83500012811D1022084F8350000201D
:1034F00060653B46324629462046FEF74CFE206872
:10350000006840F001002168086006E000BF00206C
:1035100084F8340000BF4FF002084046DAE731B5C6
:1035200000F0E4F90546009C601C00B1641C00BF7B
:1035300000F0DCF9401BA042FAD338BD2DE9F04180
:1035400004460E460127002500BF2648007E0128BC
:1035500002D10220BDE8F08101202249087600BF97
:103560004CF25030FEF774FF0746002F32D1401E58
:1035700030602068012810D1207C6168FEF794FE3D
:103580004CF25030FEF764FF07461748006848F2D7
:1035900004018843144908601AE0A56812E0217C00
:1035A0002846FEF70FFE4CF25030FEF751FF07465B
:1035B0000D48006820F0FA000B4908600FB1356033
:1035C00005E06D1CD4E902100844A842E7D800BF0A
:1035D000FEF72EFE00BF00200249087600BF3846E5
:1035E000B8E70000F00E0020103C024003480068DD
:1035F00040F000400149086000207047103C024044
:103600002DE9F04106460F4614461D464FF00108CD
:1036100000BF1F48007E012802D10220BDE8F081D2
:1036200001201B49087600BF4CF25030FEF710FF16
:103630008046B8F1000F23D126B9E1B23846FEF733
:103640005DFE12E0012E04D1A1B23846FEF77EFEE7
:103650000BE0022E04D121463846FEF78BFE04E033
:1036600022462B463846FEF75BFE4CF25030FEF702
:10367000EFFE80460748006820F001000549086019
:1036800000BF00200249087600BF4046C6E70000A0
:10369000F00E0020103C02400748006800F0004097
:1036A00030B1064804490C3908600548086001E05B
:1036B000012070470020FCE7103C024023016745D1
:1036C000AB89EFCDF8B502460B460025002400205B
:1036D0000021E6E0012606FA01F51E6806EA050467
:1036E000AC4273D15E68022E02D05E68122E13D1F6
:1036F000CF0802F1200656F827004E07F70E0F26D6
:10370000BE40B0434F07FF0E1E69BE403043CF0896
:1037100002F1200646F8270010684F000326BE403D
:10372000B0431E7906F003064F00BE4030431060E0
:103730005E68012E08D05E68022E05D05E68112EEC
:1037400002D05E68122E13D190684F000326BE404F
:10375000B0434F00DE68BE403043906050680126A1
:103760008E40B0431E79C6F300168E403043506041
:10377000D0684F000326BE40B0434F009E68BE4055
:103780003043D0605E6806F08056B6F1805FA8D105
:1037900000BF00260096454E366846F48046434FEB
:1037A0003E603E46366806F48046009600BF00BF85
:1037B0003F4E8F0856F827008E07370F0F26BE4062
:1037C000B0433C4EB24202D100262EE068E03A4EB1
:1037D000B24201D1012628E0384EB24201D1022680
:1037E00023E0374EB24201D103261EE0354EB242ED
:1037F00001D1042619E0344EB24201D1052614E06D
:10380000324EB24201D106260FE0314EB24201D112
:1038100007260AE02F4EB24201D1082605E02E4EBF
:10382000B24201D1092600E00A268F073F0FBE40B1
:1038300030431F4E8F0846F82700284E3068A043BB
:103840005E6806F48036B6F5803F00D12043234EF3
:103850003060361D3068A0435E6806F40036B6F569
:10386000003F00D120431D4E361D3060361D3068AC
:10387000A0435E6806F48016B6F5801F00D1204391
:10388000164E08363060361D3068A0435E6806F478
:103890000016B6F5001F00D12043104E0C363060E4
:1038A000491C1029FFF416AFF8BD0000443802404F
:1038B00008380140000002400004024000080240B5
:1038C000000C0240001002400014024000180240A8
:1038D000001C02400020024000240240003C014045
:1038E0000AB1816101E00B048361704701480068FF
:1038F000704700003801002002480068401C014960
:10390000086070473801002010B50D48006840F489
:1039100000700B4908600846006840F48060086049
:103920000846006840F480700860032000F09CF8AE
:10393000002000F007F800F04BF8002010BD000058
:10394000003C024070B588B00446002500260022E5
:103950002146362000F04AF8362000F03AF800BF41
:10396000002001901648006840F0100014490860DB
:103970000846006800F01000019000BF00BF02A9D7
:1039800003A800F077FB00F09DFB45000D48B5FB58
:10399000F0F0461E0C480D49086040F2E7310B4834
:1039A000C160466000210161816001F094FA20B994
:1039B000064801F0ABFA08B070BD0120FBE700003B
:1039C0004038024040420F0000100040900D00209F
:1039D000704700BF00F01F02012191404209920090
:1039E00002F1E022C2F8001100BF70472DE9F05F3C
:1039F00080460D461646002702F010FE074639465F
:103A00002A46334601F00700C0F1070ABAF1040F55
:103A100002D94FF0040A01E0C0F1070AD14600F1D3
:103A2000040ABAF1070F02D24FF0000A01E0A0F138
:103A3000030AD4464FF0010A0AFA09FAAAF1010A68
:103A40000AEA020A0AFA0CFA4FF0010B0BFA0CFB15
:103A5000ABF1010B0BEA030B4AEA0B04214640468B
:103A600002F0E4FDBDE8F09F00BF00F00702064B46
:103A700019684FF6FF031940044B0B4343EA022138
:103A8000014B196000BF70470CED00E00000FA0523
:103A900038B5002400BF002000902348006840F0A3
:103AA0008050214908600846006800F0805000906E
:103AB00000BF00BF0120010491FAA1F1B1FA81F128
:103AC0001A4A42F82100FFF711FF044607E0FFF70A
:103AD0000DFF001BB0F57A7F01D9032038BD1448D3
:103AE000406800F48030B0F5803FF0D101204104FF
:103AF00091FAA1F1B1FA81F10C4A42F82100FFF7E5
:103B0000F5FE044607E0FFF7F1FE001BB0F57A7FF3
:103B100001D90320E2E70648406800F40030B0F520
:103B2000003FF0D10020D9E74038024000000E42AB
:103B300000700040F8B5044600250026207800F00B
:103B4000010020B9207800F00200022866D1002090
:103B5000CE498866FFF7CAFE054606E0FFF7C6FEB7
:103B6000401B022801D90320F8BDC9480068C0F3F2
:103B7000C0600028F2D1207800F0010098B147F62B
:103B8000C07191FAA1F1B1FA81F1606888404FF0FB
:103B9000E04292FAA2F2B2FA82F2A168914008439E
:103BA000BB4984310860207800F00200022821D14E
:103BB000B7488430006800F0E0404FF0E04191FAEF
:103BC000A1F1B1FA81F120FA01F660688101207B50
:103BD00041EA006040EA0670AD4984310860AC48B3
:103BE0008C30006820F01F00E169491E0843A84995
:103BF0008C3108600120A5498866FFF777FE0546ED
:103C000006E0FFF773FE401B022801D90320ABE753
:103C10009F480068C0F3C0600028F2D0207800F010
:103C20000400042804D0207800F0080008287DD182
:103C3000002096490867FFF759FE054606E0FFF7A2
:103C400055FE401B022801D903208DE790480068EB
:103C5000C0F340700028F2D1207800F0040004285E
:103C600034D18B488830006800F0E0404FF0E041EC
:103C700091FAA1F1B1FA81F120FA01F647F6C0718B
:103C800091FAA1F1B1FA81F1206988404FF0706298
:103C900092FAA2F2B2FA82F26169914008434FF0BF
:103CA000E04191FAA1F1B1FA81F106FA01F108437C
:103CB000774988310860081D006820F4F851206AAF
:103CC000401E41EA002072498C310860207800F0E3
:103CD0000800082834D16E488830006800F0706011
:103CE0004FF0706191FAA1F1B1FA81F120FA01F679
:103CF00047F6C07191FAA1F1B1FA81F120698840CB
:103D00004FF0706191FAA1F1B1FA81F106FA01F177
:103D100008434FF0E04292FAA2F2B2FA82F2A169AD
:103D2000914008435A498831086000E01CE0081DB2
:103D3000006820F44030616A084355498C310860BE
:103D4000012052490867FFF7D1FD054606E0FFF75D
:103D5000CDFD401B022801D9032005E74C4800682F
:103D6000C0F340700028F2D0207800F02000202816
:103D70007ED100BF0020009045484030006840F0F0
:103D800080504349403108600846006800F0805088
:103D9000009000BF00BF3F48006840F480703D497C
:103DA0000860FFF7A3FD054606E0FFF79FFD401BF7
:103DB000022801D90320D7E63648006800F4807055
:103DC0000028F2D032487030006800F440764EB3DC
:103DD000208D00F44070B04224D02D48703000682F
:103DE00020F4407601202C49086000200860284813
:103DF00070300660006800F0010098B1FFF776FDB2
:103E0000054608E0FFF772FD401B41F28831884209
:103E100001D90320A8E61E4870300068C0F34000B6
:103E20000028EFD000BF208D00F44070B0F5407F37
:103E30000CD117480830006820F4F810174AA16A1E
:103E40001140084312490831086007E01048083063
:103E5000006820F4F8100E49083108600C487030F2
:103E60000068218DC1F30B0108430949703100E05E
:103E700001E0086000BF207800F01000102803D196
:103E800094F82C000649086000206DE600004742C7
:103E90000038024000700040400E4742FFFCFF0F18
:103EA000E011474270B504460D4600266D48006893
:103EB00000F00F00A84209D26A490D700846006858
:103EC00000F00F00A84201D0012070BD207800F062
:103ED0000200022807D16448006820F0F000A168C1
:103EE000084361490860207800F00100002877D07D
:103EF0006068012807D15C4808380068C0F340407A
:103F0000B8B90120E1E76068022802D060680328A0
:103F100007D1554808380068C0F3406048B901200F
:103F2000D3E7514808380068C0F3400008B90120C1
:103F3000CBE74D48006820F00300616808434A4918
:103F40000860FFF7D3FC06466068012810D108E03E
:103F5000FFF7CCFC801B41F28831884201D9032055
:103F6000B3E74148006800F00C000428F0D137E0C6
:103F70006068022810D108E0FFF7B8FC801B41F20E
:103F80008831884201D903209FE73748006800F054
:103F90000C000828F0D123E06068032810D108E065
:103FA000FFF7A4FC801B41F28831884201D903202D
:103FB0008BE72D48006800F00C000C28F0D10FE0D2
:103FC00008E0FFF793FC801B41F28831884201D959
:103FD00003207AE72448006800F00C000028F0D1A4
:103FE0002048006800F00F00A84209D91D490D7053
:103FF0000846006800F00F00A84201D0012064E7E5
:10400000207800F00400042807D11748006820F445
:10401000E050E168084314490860207800F0080087
:10402000082808D11048006820F46040216940EA5F
:10403000C1000D49086000F071F80B49096801F0F2
:10404000F001F02292FAA2F2B2FA82F2D140074ACB
:10405000515CC840064908600020FFF773FC00204F
:1040600033E70000003C0240083802405AF40008E0
:10407000EC0100200F2202600D4A126802F00302D8
:1040800042600B4A126802F0F0028260084A12682D
:1040900002F4E052C260064A126802F46042D2089A
:1040A0000261044A126802F00F020A6070470000C1
:1040B00008380240003C0240014800687047000098
:1040C000EC01002000B5FFF7F7FF0749096801F48C
:1040D000E0514FF4E05292FAA2F2B2FA82F2D140E9
:1040E000024A515CC84000BD083802406AF400082A
:1040F00000B5FFF7E1FF0749096801F460414FF49B
:10410000604292FAA2F2B2FA82F2D140024A515CC3
:10411000C84000BD083802406AF4000870B50021AC
:10412000002200230020274C246804F00C0424B152
:10413000042C04D0082C41D103E0234840E023485C
:104140003EE0204C241F246804F03F011D4C241F36
:10415000246804F4800484B11C4CB4FBF1F5194CC0
:10416000241F246847F6C076344096FAA6F6B6FABD
:1041700086F6F44005FB04F20FE0134CB4FBF1F5B6
:10418000104C241F246847F6C076344096FAA6F6F1
:10419000B6FA86F6F44005FB04F20A4C241F2468A4
:1041A00004F440344FF4403595FAA5F5B5FA85F599
:1041B000EC40641C6300B2FBF3F001E0024800BF76
:1041C00000BF70BD083802400024F400001BB70097
:1041D00038B504460025207800F00100002874D08E
:1041E000F748006800F00C0004280DD0F44800687F
:1041F00000F00C00082813D1F148001F006800F4FB
:104200008000B0F5800F0BD1ED4808380068C0F38E
:104210004040002859D06068002856D1012038BDA0
:1042200000BF6068B0F5803F08D1E54808380068F5
:1042300040F48030E249083908601EE06068B0F55B
:10424000A02F0DD1DE480838006840F48020DC49FA
:10425000083908600846006840F4803008600CE0C7
:10426000D7480838006820F48030D54908390860FC
:104270000846006820F48020086000BF606890B1A4
:10428000FFF734FB054606E0FFF730FB401B6428D0
:1042900001D90320C3E7CA4808380068C0F340408A
:1042A0000028F1D011E0FFF721FB054606E0FFF7FB
:1042B0001DFB401B642801D90320B0E7C048083823
:1042C0000068C0F340400028F1D1207800F00200DF
:1042D000022869D1BA48006800F00C0058B1B8480B
:1042E000006800F00C00082821D1B548001F0068C4
:1042F00000F48000D8B9B24808380068C0F3400024
:1043000020B1E068012801D0012088E7AC480838D6
:10431000006820F0F800F82292FAA2F2B2FA82F2D3
:10432000216991400843A649083908603CE0E068EB
:1043300028B30120A3490860FFF7D8FA054606E034
:10434000FFF7D4FA401B022801D9032067E79C48F5
:1043500008380068C0F340000028F1D098480838B9
:10436000006820F0F800F82292FAA2F2B2FA82F283
:1043700021699140084392490839086014E00020FF
:1043800090490860FFF7B2FA054606E0FFF7AEFA7B
:10439000401B022801D9032041E7894808380068FA
:1043A000C0F340000028F1D1207800F00800082870
:1043B0002CD16069A8B1012083490860FFF796FA03
:1043C000054606E0FFF792FA401B022801D90320B8
:1043D00025E77B486C300068C0F340000028F1D02E
:1043E00014E0002078490860FFF780FA054606E0EF
:1043F000FFF77CFA401B022801D903200FE7704821
:104400006C300068C0F340000028F1D1207800F043
:10441000040004287FD100BF002000906848383095
:10442000006840F0805066493831086008460068EE
:1044300000F08050009000BF00BF6448006840F466
:10444000807062490860FFF751FA054606E0FFF701
:104450004DFA401B022801D90320E0E65B480068C2
:1044600000F480700028F2D000BFA068012808D1B5
:1044700053486830006840F00100514968310860D5
:104480001DE0A06805280DD14D486830006840F057
:1044900004004B49683108600846006840F001009C
:1044A00008600CE046486830006820F0010044498C
:1044B000683108600846006820F00400086000BF0A
:1044C000A068A0B1FFF712FA054608E0FFF70EFA60
:1044D000401B41F28831884201D903209FE63848C9
:1044E00068300068C0F340000028EFD013E0FFF709
:1044F000FDF9054608E0FFF7F9F9401B41F2883164
:10450000884201D903208AE62D4868300068C0F34C
:1045100040000028EFD1A069F0B32948006800F0FE
:104520000C00082871D0A069022858D10020254924
:104530000866FFF7DBF9054606E0FFF7D7F9401BF1
:10454000022801D903206AE61D4808380068C0F334
:1045500040600028F1D1D4E90701084347F6C07252
:1045600092FAA2F2B2FA82F2616A91400843012201
:10457000A16AC2EB51014FF4403292FAA2F2B2FAB0
:1045800082F2914008434FF0706292FAA2F2B2FABE
:1045900082F2E16A914000E039E008430849091FCE
:1045A0000860012007490866FFF7A0F905460FE0FB
:1045B000FFF79CF9401B02280AD903202FE60000D0
:1045C0000838024000004742800E47420070004019
:1045D00010480068C0F340600028E9D017E00020D0
:1045E0000D490866FFF782F9054606E0FFF77EF9F8
:1045F000401B022801D9032011E606480068C0F3D9
:1046000040600028F2D102E0FFE7012007E6002029
:1046100005E6000000380240000047420246002341
:10462000106800F1500303EB81031868704710B560
:104630000023046804F1500303EB81031A6010BDEA
:104640002DE9F04104460D461646002700BF207FA5
:10465000012802D10220BDE8F0810120207700BFAF
:104660000220607700BFCA20216848625320216879
:10467000486200BF2068806800F48060E0B1FFF706
:1046800035F9074612E0FFF731F9C01BB0F57A7F24
:104690000CD900BFFF202168486200BF032060776B
:1046A00000BF0020207700BF0320D4E72068C06847
:1046B000C0F380000028E6D12068806820F4806084
:1046C00021688860FFF712F9074612E0FFF70EF93C
:1046D000C01BB0F57A7F0CD900BFFF20216848626B
:1046E00000BF0320607700BF0020207700BF0320B9
:1046F000B1E72068C068C0F380000028E6D02068D9
:10470000806820F007002168886020688068304356
:1047100021688860206845612068806840F4806076
:104720002168886000BFFF202168486200BF012027
:10473000607700BF0020207700BF00BF8BE700003C
:1047400010B504460CB9012010BD607F20B90020CF
:104750002077204600F04EF80220607700BFCA2084
:104760002168486253202168486200BF204601F05A
:10477000BFFF40B100BFFF202168486200BF042096
:1047800060770120E0E720688068194908402168C7
:104790008860216960680843616908432168896805
:1047A0000843216888602168E06808612068016921
:1047B000208941EA0040216808612068C06820F033
:1047C00080002168C8602068006C20F48020216887
:1047D00008642068006CA16908432168086400BF70
:1047E000FF202168486200BF012060770020ABE70E
:1047F000BFFF8FFF034A0168914202D10121024AA3
:1048000011607047002800403C0E47422DE9F041FE
:1048100004460D461646002700BF207F012802D11E
:104820000220BDE8F0810120207700BF02206077E0
:104830004EB9687800F01000102804D1687800F0B4
:10484000EF000A30687086B9E87801F044FF03048D
:10485000687801F040FF43EA0023A87801F03BFFAD
:104860000343287843EA403711E0687801F028FFD5
:104870000746A87801F024FF0746E8780004697825
:1048800040EA0120A9780843297840EA413700BF6F
:10489000CA202168486253202168486200BF204630
:1048A00001F026FF60B100BFFF202168486200BF11
:1048B0000420607700BF0020207700BF0120B0E710
:1048C00016483840216848602068C06820F08000A1
:1048D0002168C8602068806800F0200080B9204608
:1048E00000F0B8F860B100BFFF202168486200BF47
:1048F0000420607700BF0020207700BF012090E7F0
:1049000000BFFF202168486200BF0120607700BF20
:104910000020207700BF00BF83E700003FFFFF00BB
:104920002DE9F04104460D461646002700BF207FC2
:10493000012802D10220BDE8F0810120207700BFCC
:1049400002206077CEB92068806800F0400000B196
:1049500002E00020E87000BF287801F0BCFE0304EC
:10496000687801F0B8FE43EA0023A87801F0B3FEAE
:104970000343E87843EA004716E02068806800F0C7
:10498000400020B1287801F09BFE074602E000209D
:10499000E87000BF28780004697840EA0120A9780F
:1049A0000843E97840EA014700BFCA20216848620D
:1049B00053202168486200BF204601F099FE60B193
:1049C00000BFFF202168486200BF0420607700BF5D
:1049D0000020207700BF0120ADE71D483840216846
:1049E00008602068806820F4802021688860D5E90C
:1049F00003010843216889680843216888602068AA
:104A0000C06820F080002168C8602068806800F0DD
:104A1000200080B9204600F01DF860B100BFFF20E3
:104A20002168486200BF0420607700BF0020207723
:104A300000BF01207FE700BFFF202168486200BF60
:104A40000120607700BF0020207700BF00BF72E721
:104A50007F7F7F0070B5044600252068C06820F085
:104A6000A0002168C860FEF741FF054607E0FEF799
:104A70003DFF401BB0F57A7F01D9032070BD20684F
:104A8000C06800F020000028F1D00020F6E710B543
:104A900004460CB9012010BD606A00B900BF0021B6
:104AA000A16294F8510028B9002084F850002046F3
:104AB00000F034F8022084F851002068006820F0EB
:104AC000400021680860D4E901010843E168084317
:104AD0002169084361690843218B01F4007108438F
:104AE000E1690843216A0843A16A08432168086014
:104AF0000421A06901EA1040616A08432168486006
:104B00002068C06920F400602168C86100206065E9
:104B1000012084F851000020BDE7000010B586B0E8
:104B200004461249206888421ED100BF0020009030
:104B30000F48006840F480100D490860084600687E
:104B400000F48010009000BF00BF4FF4607001902F
:104B5000022002900020039003200490052005907D
:104B600001A90448FEF7AEFD06B010BD005001409B
:104B700044380240001402402DE9FE4F04460D4621
:104B800016461F46DDF830804FF0000A00200290E4
:104B900081464FF0010B019000BF94F850000128AE
:104BA00002D10220BDE8FE8F012084F8500000BF32
:104BB000FEF79CFE814694F851A060680290BAF11D
:104BC000010F0BD00298B0F5827F04D1A06810B914
:104BD000BAF1040F02D002200190D2E00DB106B16B
:104BE00017B901200190CCE094F85100012802D1BE
:104BF000052084F8510000206065A663E787A78739
:104C00002563E786A786206460642068006800F05A
:104C10004000402805D02068006840F0400021682E
:104C20000860E068B0F5006F43D1606810B1E08EB5
:104C3000012806D128882168C860AD1CE08E401E7E
:104C4000E0862FE0BBF1000F10D0E08E70B120683D
:104C5000806800F00200022808D128882168C86016
:104C6000AD1CE08E401EE0864FF0000BE08F68B177
:104C70002068806800F0010040B12068C068308082
:104C8000B61CE08F401EE0874FF0010B08F10100D9
:104C900040B1FEF72BFEA0EB0900404502D30320F4
:104CA00001906EE0E08E0028CCD1E08F0028C9D1C1
:104CB00042E0606810B1E08E012806D128782168B2
:104CC00008736D1CE08E401EE0862FE0BBF1000FE4
:104CD00010D0E08E70B12068806800F002000228D9
:104CE00008D115F8010B21680873E08E401EE0869C
:104CF0004FF0000BE08F68B12068806800F0010081
:104D000040B12068C06806F8010BE08F401EE087C4
:104D10004FF0010B08F1010040B1FEF7E7FDA0EBF9
:104D20000900404502D3032001902AE0E08E0028CC
:104D3000CCD1E08F0028C9D1434601220221204670
:104D4000CDF8009001F007FD10B10320019018E0AC
:104D50004A464146204601F0EAFC20B1012001907C
:104D6000202060650DE0A06850B900BF00200090D1
:104D70002068C068009020688068009000BF00BF75
:104D800000BF012084F8510000BF002084F85000CB
:104D900000BF019806E7042808D14FF0E021096917
:104DA00041F004014FF0E022116107E04FF0E021F3
:104DB000096921F004014FF0E0221161704770B5DC
:104DC00004462546681EB0F1807F01D301200FE024
:104DD000681E4FF0E02148610F214FF0FF3001F0D5
:104DE00025FC00204FF0E0218861072008610020A9
:104DF00070BD7047704710B50346002200BF93F89E
:104E00003800012801D1022010BD012083F83800AC
:104E100000BF22F0FF00CC6840EA040222F4407098
:104E20008C6840EA040222F480604C6840EA040284
:104E300022F400600C6840EA040222F480500C69FD
:104E400040EA040222F400504C6940EA040222F4D1
:104E500080408C6940EA040222F400408C6940EAF8
:104E600004021868426400BF002083F8380000BFC5
:104E700000BFC9E7024600BF92F83800012801D1FF
:104E800002207047012082F8380000BF022082F81B
:104E900039001068406820F070001368586010688E
:104EA00040680B681843136858601068806820F0E9
:104EB000800013689860106880684B681843136816
:104EC0009860012082F8390000BF002082F8380085
:104ED00000BF00BFD5E710B504460CB9012010BDD6
:104EE00094F8390028B9002084F83800204600F0F2
:104EF0000CF8022084F83900211D206801F0B4FD6F
:104F0000012084F839000020E9E77047014608686D
:104F1000C06840F001000A68D0600868006840F08E
:104F200001000A68106000207047704710B5044601
:104F300020680069C0F34000D8B12068C068C0F3A1
:104F40004000B0B16FF002002168086101202076B6
:104F50002068806900F0030018B12046FFF7E5FFE4
:104F600005E0204600F042F9204600F067FA0020F4
:104F7000207620680069C0F38000D8B12068C0683E
:104F8000C0F38000B0B16FF0040021680861022016
:104F900020762068806900F4407018B12046FFF741
:104FA000C4FF05E0204600F021F9204600F046FA53
:104FB0000020207620680069C0F3C000D8B12068C6
:104FC000C068C0F3C000B0B16FF00800216808618C
:104FD000042020762068C06900F0030018B1204644
:104FE000FFF7A3FF05E0204600F000F9204600F09F
:104FF00025FA0020207620680069C0F30010D8B19F
:105000002068C068C0F30010B0B16FF010002168D4
:105010000861082020762068C06900F4407018B14B
:105020002046FFF782FF05E0204600F0DFF820462B
:1050300000F004FA002020762068006900F00100EA
:1050400058B12068C06800F0010030B16FF0010075
:1050500021680861204600F019FA20680069C0F351
:10506000C01058B12068C068C0F3C01030B16FF0F4
:105070008000216808612046FFF7BBFE20680069B8
:10508000C0F3801058B12068C068C0F3801030B100
:105090006FF0400021680861204600F003FA2068A4
:1050A0000069C0F3401058B12068C068C0F34010D8
:1050B00030B16FF02000216808612046FFF79AFEAA
:1050C00010BD000010B586B004462068B0F1804FD6
:1050D0000DD10F2001900220029000200390049037
:1050E0000120059001A93748FEF7ECFA67E0364940
:1050F000206888420DD130200190022002900020CB
:10510000039004900220059001A93048FEF7DAFAD6
:1051100055E02F49206888420ED14FF4704001902D
:10512000022002900020039004900220059001A923
:105130002848FEF7C7FA42E02749206888421BD179
:105140000120019002200290002003900490022090
:10515000059001A92148FEF7B5FA4FF4E0500190FF
:10516000022002900020039004900220059001A9E3
:105170001B48FEF7A7FA22E01A49206888420DD1A1
:10518000E42001900220029000200390049003206C
:10519000059001A91148FEF795FA10E01249206820
:1051A00088420CD140200190022002900020039000
:1051B00004900920059001A90948FEF783FA06B07A
:1051C00010BD000000000240000400400004024046
:1051D00000080040000C0240000C0040002002408B
:1051E000001C02400004014000180040704770B5E8
:1051F00004460D46164600BF94F83800012801D138
:10520000022070BD012084F8380000BF022084F81D
:10521000390036B1042E1BD0082E31D00C2E5ED1B1
:1052200045E02946206801F09FFC2068806940F035
:105230000800216888612068806920F004002168E6
:10524000886120688069296908432168886147E08E
:105250002946206801F0C0FC2068806940F40060A5
:10526000216888612068806920F4806021688861F5
:1052700020688069296940EA0120216888612FE05F
:105280002946206801F0E4FC2068C06940F008006D
:105290002168C8612068C06920F004002168C861E5
:1052A0002068C069296908432168C86118E0294657
:1052B000206801F009FD2068C06940F400602168A1
:1052C000C8612068C06920F480602168C8612068D6
:1052D000C069296940EA01202168C86100E000BF77
:1052E00000BF012084F8390000BF002084F8380096
:1052F00000BF00BF85E710B504460CB9012010BD02
:1053000094F8390028B9002084F83800204600F0CD
:105310000DF8022084F83900211D206801F0A4FB5B
:10532000012084F839000020E9E7000008B5016891
:10533000B1F1804F0FD100BF0021009139490968B8
:1053400041F00101374A11601146096801F001017D
:10535000009100BF65E0344A016891420FD100BF5F
:10536000002100912F49096841F002012D4A116086
:105370001146096801F00201009100BF51E02B4A7B
:10538000016891420FD100BF0021009125490968B1
:1053900041F00401234A11601146096801F004013B
:1053A000009100BF3DE0224A016891420FD100BF49
:1053B000002100911B49096841F00801194A116058
:1053C0001146096801F00801009100BF29E0194A5F
:1053D0000168914211D100BF002100911149091DBE
:1053E000096841F002010F4A121D11601146096857
:1053F00001F00201009100BF13E00F4A01689142E1
:105400000FD100BF002100910649096841F0400119
:10541000044A11601146096801F04001009100BF83
:1054200000BF08BD403802400004004000080040B2
:10543000000C0040000401400018004070470000CC
:1054400030B504460D4601222946206801F07EFB56
:105450000C492068884203D00B492068884201D15A
:10546000012000E0002028B12068406C40F400409A
:10547000216848642068006840F0010021680860E5
:10548000002030BD000001400004014010B504467A
:1054900003492068884201D1FEF72EFA10BD0000B2
:1054A00000100040704770472DE9F047044620681F
:1054B00005682068C668206847694FF00008C14643
:1054C00005F00F08B8F1000F0AD105F0200038B13F
:1054D00006F0200020B1204601F064FCBDE8F08712
:1054E000B8F1000F6DD007F0010018B906F4907004
:1054F000002866D005F0010030B106F4807018B1C4
:10550000E06B40F00100E06305F0040030B107F00B
:10551000010018B1E06B40F00200E06305F002000A
:1055200030B107F0010018B1E06B40F00400E06317
:1055300005F0080030B107F0010018B1E06B40F051
:105540000800E063E06B68B305F0200028B106F0C6
:10555000200010B1204601F025FC20684069C0F30E
:105560008019E06B00F0080010B9B9F1000F22D0EB
:10557000204601F0F7FB2068406900F04000B0B120
:105580002068406920F0400021684861606B50B19C
:105590001748616B0865606BFDF7DFFD10B1606B4C
:1055A000016D88470CE02046FFF77DFF08E02046AC
:1055B000FFF779FF04E02046FFF775FF0020E06366
:1055C0008CE705F0800030B106F0800018B120466D
:1055D00001F0EAFD82E705F0400030B106F040003E
:1055E00018B1204601F0CEFB78E700BF76E7000057
:1055F000516D000810B504460CB9012010BDA0691A
:1056000000B100E000BF94F8390028B9002084F808
:105610003800204600F028F8242084F8390020685B
:10562000C06820F400502168C860204601F008FCE2
:105630002068006920F49040216808612068406972
:1056400020F02A00216848612068C06840F40050BA
:105650002168C8600020E063202084F8390084F8C5
:105660003A000020CAE7000010B586B00446BF49E2
:105670002068884246D100BF00200090BC480068E6
:1056800040F08040BA4908600846006800F0804059
:10569000009000BF00BF4FF4C07001900220029044
:1056A00001200390032004900820059001A9B1482F
:1056B000FEF708F8B048B14908604FF02060486034
:1056C0000021AE488160C1604FF48061016100211A
:1056D00041618161C16101624162FDF777FE18B1EC
:1056E000CA21A7A001F09EFE00BFA44860638463A6
:1056F00000BF002205215220FEF778F95220FEF764
:1057000068F930E1A2492068884245D100BF0020F5
:1057100000909748006840F00040954908600846AE
:10572000006800F00040009000BF00BF032001901F
:10573000022002900120039003200490082005908D
:1057400001A98C48FDF7BEFF8B484830914908609D
:105750000005486000218F488160C1604FF480617E
:105760000161002141618161C16101624162FDF716
:105770002DFE18B1F72182A001F054FE00BF85482C
:105780006063846300BF002205215320FEF72EF9D9
:105790005320FEF71EF9E6E07F492068884248D191
:1057A00000BF002000907248001D006840F010000B
:1057B0006F49091D08600846006800F0100000905D
:1057C00000BF00BFC0200190022002900120039082
:1057D000032004900720059001A97048FDF772FF8F
:1057E0006F48704908604FF00060486000216D48C4
:1057F0008160C1604FF4806101610021416181617C
:10580000C16101624162FDF7E1FD20B14FF4927187
:105810005BA001F007FE00BF62486063846300BFC5
:10582000002205212520FEF7E1F82520FEF7D1F81A
:1058300099E05D492068884248D100BF002000906F
:105840004B48006840F480204949086008460068D9
:1058500000F48020009000BF00BF4FF44070019022
:10586000022002900120039003200490072005905D
:1058700001A94E48FDF726FF3F4830384C490860E3
:105880004FF000604860002149488160C1604FF4DA
:1058900080610161002141618161C16101624162F8
:1058A000FDF794FD20B140F2511135A001F0BAFD91
:1058B00000BF3F486063846300BF002205212720AA
:1058C000FEF794F82720FEF784F84CE03949206869
:1058D000884248D100BF002000902548001D006884
:1058E00040F020002249091D08600846006800F0C9
:1058F0002000009000BF00BF4FF4844001900220C0
:10590000029001200390032004900820059001A933
:105910002948FDF7D7FE2248183828490860800535
:105920004860002125488160C1604FF480610161B9
:10593000002141618161C16101624162FDF746FD63
:1059400020B14FF4BF710EA001F06CFD00BF1B48E9
:105950006063846300BF002205214720FEF746F8FC
:105960004720FEF736F806B010BD00000078004072
:10597000403802400010024058600240B00B002046
:105980002E2E2F5372632F75736172742E63000075
:10599000007C0040100C0020001001400004024078
:1059A00040640240700C002000480040000C02409F
:1059B000D00C00200014014000180240300D0020DF
:1059C00070472DE9F84304460D4616461F464FF032
:1059D000000994F8390020285CD105B116B90120DE
:1059E000BDE8F88300BF94F83800012801D10220F7
:1059F000F6E7012084F8380000BF0020E063212092
:105A000084F83900FDF772FF8146A684E6842BE016
:105A1000E08C401EE084A068B0F5805F16D14B4654
:105A2000002280212046009701F0F2FB08B10320FC
:105A3000D6E7A846B8F80000C0F30800216848601F
:105A4000206908B9AD1C0FE06D1C0DE04B4600222B
:105A500080212046009701F0DBFB08B10320BFE75F
:105A600015F8010B21684860E08C0028D0D14B4626
:105A7000002240212046009701F0CAFB08B1032014
:105A8000AEE7202084F8390000BF002084F83800F9
:105A900000BFA5E70220A3E7704700BFFEE72DE99E
:105AA000F04F0C4609AD95E8E010DDE90D890021C5
:105AB00006E014F801A0C1F1020B00F80BA0491C8C
:105AC000032904DA14F801A0BAF1000FF1D190F81B
:105AD00003A062F3020A80F803A0B0F803A063F306
